{
  "contractName": "ImageMarketPlace",
  "abi": [
    {
      "inputs": [],
      "payable": false,
      "stateMutability": "nonpayable",
      "type": "constructor"
    },
    {
      "anonymous": false,
      "inputs": [
        {
          "indexed": false,
          "internalType": "uint256",
          "name": "id",
          "type": "uint256"
        },
        {
          "indexed": false,
          "internalType": "string",
          "name": "name",
          "type": "string"
        },
        {
          "indexed": false,
          "internalType": "string",
          "name": "ipfsHash",
          "type": "string"
        },
        {
          "indexed": false,
          "internalType": "string",
          "name": "ext",
          "type": "string"
        },
        {
          "indexed": false,
          "internalType": "string",
          "name": "mime",
          "type": "string"
        },
        {
          "indexed": false,
          "internalType": "uint256",
          "name": "price",
          "type": "uint256"
        },
        {
          "indexed": false,
          "internalType": "bool",
          "name": "purchased",
          "type": "bool"
        },
        {
          "indexed": false,
          "internalType": "address payable",
          "name": "owner",
          "type": "address"
        }
      ],
      "name": "ImageCreated",
      "type": "event"
    },
    {
      "anonymous": false,
      "inputs": [
        {
          "indexed": false,
          "internalType": "uint256",
          "name": "id",
          "type": "uint256"
        },
        {
          "indexed": false,
          "internalType": "string",
          "name": "name",
          "type": "string"
        },
        {
          "indexed": false,
          "internalType": "uint256",
          "name": "price",
          "type": "uint256"
        }
      ],
      "name": "ImageEdited",
      "type": "event"
    },
    {
      "anonymous": false,
      "inputs": [
        {
          "indexed": false,
          "internalType": "uint256",
          "name": "id",
          "type": "uint256"
        },
        {
          "indexed": false,
          "internalType": "string",
          "name": "name",
          "type": "string"
        },
        {
          "indexed": false,
          "internalType": "string",
          "name": "ipfsHash",
          "type": "string"
        },
        {
          "indexed": false,
          "internalType": "uint256",
          "name": "price",
          "type": "uint256"
        },
        {
          "indexed": false,
          "internalType": "address payable",
          "name": "owner",
          "type": "address"
        }
      ],
      "name": "ImagePurchased",
      "type": "event"
    },
    {
      "constant": true,
      "inputs": [],
      "name": "imageCount",
      "outputs": [
        {
          "internalType": "uint256",
          "name": "",
          "type": "uint256"
        }
      ],
      "payable": false,
      "stateMutability": "view",
      "type": "function"
    },
    {
      "constant": true,
      "inputs": [
        {
          "internalType": "uint256",
          "name": "",
          "type": "uint256"
        }
      ],
      "name": "images",
      "outputs": [
        {
          "internalType": "uint256",
          "name": "id",
          "type": "uint256"
        },
        {
          "internalType": "string",
          "name": "name",
          "type": "string"
        },
        {
          "internalType": "string",
          "name": "ipfsHash",
          "type": "string"
        },
        {
          "internalType": "string",
          "name": "ext",
          "type": "string"
        },
        {
          "internalType": "string",
          "name": "mime",
          "type": "string"
        },
        {
          "internalType": "uint256",
          "name": "price",
          "type": "uint256"
        },
        {
          "internalType": "bool",
          "name": "purchased",
          "type": "bool"
        },
        {
          "internalType": "address payable",
          "name": "owner",
          "type": "address"
        }
      ],
      "payable": false,
      "stateMutability": "view",
      "type": "function"
    },
    {
      "constant": true,
      "inputs": [
        {
          "internalType": "address",
          "name": "",
          "type": "address"
        },
        {
          "internalType": "uint256",
          "name": "",
          "type": "uint256"
        }
      ],
      "name": "imagesPaid",
      "outputs": [
        {
          "internalType": "bool",
          "name": "",
          "type": "bool"
        }
      ],
      "payable": false,
      "stateMutability": "view",
      "type": "function"
    },
    {
      "constant": true,
      "inputs": [],
      "name": "name",
      "outputs": [
        {
          "internalType": "string",
          "name": "",
          "type": "string"
        }
      ],
      "payable": false,
      "stateMutability": "view",
      "type": "function"
    },
    {
      "constant": true,
      "inputs": [],
      "name": "imagesUploaded",
      "outputs": [
        {
          "internalType": "uint256[]",
          "name": "",
          "type": "uint256[]"
        }
      ],
      "payable": false,
      "stateMutability": "view",
      "type": "function"
    },
    {
      "constant": true,
      "inputs": [],
      "name": "imagesBought",
      "outputs": [
        {
          "internalType": "uint256[]",
          "name": "",
          "type": "uint256[]"
        }
      ],
      "payable": false,
      "stateMutability": "view",
      "type": "function"
    },
    {
      "constant": false,
      "inputs": [
        {
          "internalType": "string",
          "name": "_name",
          "type": "string"
        },
        {
          "internalType": "uint256",
          "name": "_price",
          "type": "uint256"
        },
        {
          "internalType": "string",
          "name": "_ipfsHash",
          "type": "string"
        },
        {
          "internalType": "string",
          "name": "_fileExt",
          "type": "string"
        },
        {
          "internalType": "string",
          "name": "_fileMime",
          "type": "string"
        }
      ],
      "name": "createImage",
      "outputs": [],
      "payable": false,
      "stateMutability": "nonpayable",
      "type": "function"
    },
    {
      "constant": false,
      "inputs": [
        {
          "internalType": "uint256",
          "name": "_id",
          "type": "uint256"
        }
      ],
      "name": "purchaseImage",
      "outputs": [],
      "payable": true,
      "stateMutability": "payable",
      "type": "function"
    },
    {
      "constant": false,
      "inputs": [
        {
          "internalType": "address",
          "name": "_from",
          "type": "address"
        },
        {
          "internalType": "uint256",
          "name": "_value",
          "type": "uint256"
        },
        {
          "internalType": "bytes",
          "name": "_extraData",
          "type": "bytes"
        }
      ],
      "name": "tokenFallback",
      "outputs": [
        {
          "internalType": "bool",
          "name": "success",
          "type": "bool"
        }
      ],
      "payable": false,
      "stateMutability": "nonpayable",
      "type": "function"
    },
    {
      "constant": false,
      "inputs": [
        {
          "internalType": "uint256",
          "name": "_id",
          "type": "uint256"
        },
        {
          "internalType": "string",
          "name": "_newName",
          "type": "string"
        },
        {
          "internalType": "uint256",
          "name": "_newPrice",
          "type": "uint256"
        }
      ],
      "name": "editImageDescr",
      "outputs": [],
      "payable": false,
      "stateMutability": "nonpayable",
      "type": "function"
    }
  ],
  "bytecode": "0x608060405260006001553480156200001657600080fd5b506040518060400160405280600a81526020017f50686f746f53746f636b0000000000000000000000000000000000000000000081525060009080519060200190620000649291906200006b565b506200011a565b828054600181600116156101000203166002900490600052602060002090601f016020900481019282601f10620000ae57805160ff1916838001178555620000df565b82800160010185558215620000df579182015b82811115620000de578251825591602001919060010190620000c1565b5b509050620000ee9190620000f2565b5090565b6200011791905b8082111562000113576000816000905550600101620000f9565b5090565b90565b612431806200012a6000396000f3fe6080604052600436106100915760003560e01c8063848564821161005957806384856482146104ca57806392053b631461070e578063c0ee0b8a14610739578063e65f629614610843578063fb785873146108af57610091565b8063058744811461009657806306fdde0314610109578063459965b61461019957806357294062146101c75780635e06bfbe1461045e575b600080fd5b3480156100a257600080fd5b506100ef600480360360408110156100b957600080fd5b81019080803573ffffffffffffffffffffffffffffffffffffffff1690602001909291908035906020019092919050505061098b565b604051808215151515815260200191505060405180910390f35b34801561011557600080fd5b5061011e6109ba565b6040518080602001828103825283818151815260200191508051906020019080838360005b8381101561015e578082015181840152602081019050610143565b50505050905090810190601f16801561018b5780820380516001836020036101000a031916815260200191505b509250505060405180910390f35b6101c5600480360360208110156101af57600080fd5b8101908080359060200190929190505050610a58565b005b3480156101d357600080fd5b5061045c600480360360a08110156101ea57600080fd5b810190808035906020019064010000000081111561020757600080fd5b82018360208201111561021957600080fd5b8035906020019184600183028401116401000000008311171561023b57600080fd5b91908080601f016020809104026020016040519081016040528093929190818152602001838380828437600081840152601f19601f82011690508083019250505050505050919291929080359060200190929190803590602001906401000000008111156102a857600080fd5b8201836020820111156102ba57600080fd5b803590602001918460018302840111640100000000831117156102dc57600080fd5b91908080601f016020809104026020016040519081016040528093929190818152602001838380828437600081840152601f19601f8201169050808301925050505050505091929192908035906020019064010000000081111561033f57600080fd5b82018360208201111561035157600080fd5b8035906020019184600183028401116401000000008311171561037357600080fd5b91908080601f016020809104026020016040519081016040528093929190818152602001838380828437600081840152601f19601f820116905080830192505050505050509192919290803590602001906401000000008111156103d657600080fd5b8201836020820111156103e857600080fd5b8035906020019184600183028401116401000000008311171561040a57600080fd5b91908080601f016020809104026020016040519081016040528093929190818152602001838380828437600081840152601f19601f820116905080830192505050505050509192919290505050610a66565b005b34801561046a57600080fd5b506104736110e3565b6040518080602001828103825283818151815260200191508051906020019060200280838360005b838110156104b657808201518184015260208101905061049b565b505050509050019250505060405180910390f35b3480156104d657600080fd5b50610503600480360360208110156104ed57600080fd5b8101908080359060200190929190505050611178565b6040518089815260200180602001806020018060200180602001888152602001871515151581526020018673ffffffffffffffffffffffffffffffffffffffff1673ffffffffffffffffffffffffffffffffffffffff16815260200185810385528c818151815260200191508051906020019080838360005b8381101561059757808201518184015260208101905061057c565b50505050905090810190601f1680156105c45780820380516001836020036101000a031916815260200191505b5085810384528b818151815260200191508051906020019080838360005b838110156105fd5780820151818401526020810190506105e2565b50505050905090810190601f16801561062a5780820380516001836020036101000a031916815260200191505b5085810383528a818151815260200191508051906020019080838360005b83811015610663578082015181840152602081019050610648565b50505050905090810190601f1680156106905780820380516001836020036101000a031916815260200191505b50858103825289818151815260200191508051906020019080838360005b838110156106c95780820151818401526020810190506106ae565b50505050905090810190601f1680156106f65780820380516001836020036101000a031916815260200191505b509c5050505050505050505050505060405180910390f35b34801561071a57600080fd5b5061072361144d565b6040518082815260200191505060405180910390f35b34801561074557600080fd5b506108296004803603606081101561075c57600080fd5b81019080803573ffffffffffffffffffffffffffffffffffffffff16906020019092919080359060200190929190803590602001906401000000008111156107a357600080fd5b8201836020820111156107b557600080fd5b803590602001918460018302840111640100000000831117156107d757600080fd5b91908080601f016020809104026020016040519081016040528093929190818152602001838380828437600081840152601f19601f820116905080830192505050505050509192919290505050611453565b604051808215151515815260200191505060405180910390f35b34801561084f57600080fd5b50610858611487565b6040518080602001828103825283818151815260200191508051906020019060200280838360005b8381101561089b578082015181840152602081019050610880565b505050509050019250505060405180910390f35b3480156108bb57600080fd5b50610989600480360360608110156108d257600080fd5b8101908080359060200190929190803590602001906401000000008111156108f957600080fd5b82018360208201111561090b57600080fd5b8035906020019184600183028401116401000000008311171561092d57600080fd5b91908080601f016020809104026020016040519081016040528093929190818152602001838380828437600081840152601f19601f8201169050808301925050505050505091929192908035906020019092919050505061151c565b005b60056020528160005260406000206020528060005260406000206000915091509054906101000a900460ff1681565b60008054600181600116156101000203166002900480601f016020809104026020016040519081016040528092919081815260200182805460018160011615610100020316600290048015610a505780601f10610a2557610100808354040283529160200191610a50565b820191906000526020600020905b815481529060010190602001808311610a3357829003601f168201915b505050505081565b610a63813334611af6565b50565b6000835111610add576040517f08c379a00000000000000000000000000000000000000000000000000000000081526004018080602001828103825260158152602001807f496e76616c69642049504653206164647265737321000000000000000000000081525060200191505060405180910390fd5b6000855111610b54576040517f08c379a00000000000000000000000000000000000000000000000000000000081526004018080602001828103825260158152602001807f4e616d652063616e6e6f7420626520656d70747921000000000000000000000081525060200191505060405180910390fd5b60008411610bca576040517f08c379a00000000000000000000000000000000000000000000000000000000081526004018080602001828103825260148152602001807f5072696365206d757374206265206e6f7420302100000000000000000000000081525060200191505060405180910390fd5b6006836040518082805190602001908083835b60208310610c005780518252602082019150602081019050602083039250610bdd565b6001836020036101000a038019825116818451168082178552505050505050905001915050908152602001604051809103902060009054906101000a900460ff1615610c4b57600080fd5b60016000815480929190600101919050555060016006846040518082805190602001908083835b60208310610c955780518252602082019150602081019050602083039250610c72565b6001836020036101000a038019825116818451168082178552505050505050905001915050908152602001604051809103902060006101000a81548160ff02191690831515021790555060405180610100016040528060015481526020018681526020018481526020018381526020018281526020018581526020016000151581526020013373ffffffffffffffffffffffffffffffffffffffff16815250600260006001548152602001908152602001600020600082015181600001556020820151816001019080519060200190610d6f9291906122a5565b506040820151816002019080519060200190610d8c9291906122a5565b506060820151816003019080519060200190610da99291906122a5565b506080820151816004019080519060200190610dc69291906122a5565b5060a0820151816005015560c08201518160060160006101000a81548160ff02191690831515021790555060e08201518160060160016101000a81548173ffffffffffffffffffffffffffffffffffffffff021916908373ffffffffffffffffffffffffffffffffffffffff160217905550905050600360003373ffffffffffffffffffffffffffffffffffffffff1673ffffffffffffffffffffffffffffffffffffffff16815260200190815260200160002060015490806001815401808255809150509060018203906000526020600020016000909192909190915055507feaee0729f73cb8d624fbf543ffe65646651714bfeda87ec774c446e5835f733160015486858585896000336040518089815260200180602001806020018060200180602001888152602001871515151581526020018673ffffffffffffffffffffffffffffffffffffffff1673ffffffffffffffffffffffffffffffffffffffff16815260200185810385528c818151815260200191508051906020019080838360005b83811015610f66578082015181840152602081019050610f4b565b50505050905090810190601f168015610f935780820380516001836020036101000a031916815260200191505b5085810384528b818151815260200191508051906020019080838360005b83811015610fcc578082015181840152602081019050610fb1565b50505050905090810190601f168015610ff95780820380516001836020036101000a031916815260200191505b5085810383528a818151815260200191508051906020019080838360005b83811015611032578082015181840152602081019050611017565b50505050905090810190601f16801561105f5780820380516001836020036101000a031916815260200191505b50858103825289818151815260200191508051906020019080838360005b8381101561109857808201518184015260208101905061107d565b50505050905090810190601f1680156110c55780820380516001836020036101000a031916815260200191505b509c5050505050505050505050505060405180910390a15050505050565b6060600460003373ffffffffffffffffffffffffffffffffffffffff1673ffffffffffffffffffffffffffffffffffffffff16815260200190815260200160002080548060200260200160405190810160405280929190818152602001828054801561116e57602002820191906000526020600020905b81548152602001906001019080831161115a575b5050505050905090565b6002602052806000526040600020600091509050806000015490806001018054600181600116156101000203166002900480601f01602080910402602001604051908101604052809291908181526020018280546001816001161561010002031660029004801561122a5780601f106111ff5761010080835404028352916020019161122a565b820191906000526020600020905b81548152906001019060200180831161120d57829003601f168201915b505050505090806002018054600181600116156101000203166002900480601f0160208091040260200160405190810160405280929190818152602001828054600181600116156101000203166002900480156112c85780601f1061129d576101008083540402835291602001916112c8565b820191906000526020600020905b8154815290600101906020018083116112ab57829003601f168201915b505050505090806003018054600181600116156101000203166002900480601f0160208091040260200160405190810160405280929190818152602001828054600181600116156101000203166002900480156113665780601f1061133b57610100808354040283529160200191611366565b820191906000526020600020905b81548152906001019060200180831161134957829003601f168201915b505050505090806004018054600181600116156101000203166002900480601f0160208091040260200160405190810160405280929190818152602001828054600181600116156101000203166002900480156114045780601f106113d957610100808354040283529160200191611404565b820191906000526020600020905b8154815290600101906020018083116113e757829003601f168201915b5050505050908060050154908060060160009054906101000a900460ff16908060060160019054906101000a900473ffffffffffffffffffffffffffffffffffffffff16905088565b60015481565b600080600083519150602084015190508160200360080281901c905061147a818787611af6565b6001925050509392505050565b6060600360003373ffffffffffffffffffffffffffffffffffffffff1673ffffffffffffffffffffffffffffffffffffffff16815260200190815260200160002080548060200260200160405190810160405280929190818152602001828054801561151257602002820191906000526020600020905b8154815260200190600101908083116114fe575b5050505050905090565b823373ffffffffffffffffffffffffffffffffffffffff166002600083815260200190815260200160002060060160019054906101000a900473ffffffffffffffffffffffffffffffffffffffff1673ffffffffffffffffffffffffffffffffffffffff16146115f4576040517f08c379a000000000000000000000000000000000000000000000000000000000815260040180806020018281038252601f8152602001807f4f6e6c7920636f7079726967687420686f6c6465722063616e2065646974210081525060200191505060405180910390fd5b6115fc612325565b600260008681526020019081526020016000206040518061010001604052908160008201548152602001600182018054600181600116156101000203166002900480601f0160208091040260200160405190810160405280929190818152602001828054600181600116156101000203166002900480156116be5780601f10611693576101008083540402835291602001916116be565b820191906000526020600020905b8154815290600101906020018083116116a157829003601f168201915b50505050508152602001600282018054600181600116156101000203166002900480601f0160208091040260200160405190810160405280929190818152602001828054600181600116156101000203166002900480156117605780601f1061173557610100808354040283529160200191611760565b820191906000526020600020905b81548152906001019060200180831161174357829003601f168201915b50505050508152602001600382018054600181600116156101000203166002900480601f0160208091040260200160405190810160405280929190818152602001828054600181600116156101000203166002900480156118025780601f106117d757610100808354040283529160200191611802565b820191906000526020600020905b8154815290600101906020018083116117e557829003601f168201915b50505050508152602001600482018054600181600116156101000203166002900480601f0160208091040260200160405190810160405280929190818152602001828054600181600116156101000203166002900480156118a45780601f10611879576101008083540402835291602001916118a4565b820191906000526020600020905b81548152906001019060200180831161188757829003601f168201915b50505050508152602001600582015481526020016006820160009054906101000a900460ff161515151581526020016006820160019054906101000a900473ffffffffffffffffffffffffffffffffffffffff1673ffffffffffffffffffffffffffffffffffffffff1673ffffffffffffffffffffffffffffffffffffffff16815250509050838160200181905250828160a001818152505080600260008781526020019081526020016000206000820151816000015560208201518160010190805190602001906119779291906122a5565b5060408201518160020190805190602001906119949291906122a5565b5060608201518160030190805190602001906119b19291906122a5565b5060808201518160040190805190602001906119ce9291906122a5565b5060a0820151816005015560c08201518160060160006101000a81548160ff02191690831515021790555060e08201518160060160016101000a81548173ffffffffffffffffffffffffffffffffffffffff021916908373ffffffffffffffffffffffffffffffffffffffff1602179055509050507fae2dad282e2864ee6756173cd08b41ae3338ffab578a306d30e95288a63a27068585856040518084815260200180602001838152602001828103825284818151815260200191508051906020019080838360005b83811015611ab3578082015181840152602081019050611a98565b50505050905090810190601f168015611ae05780820380516001836020036101000a031916815260200191505b5094505050505060405180910390a15050505050565b600083118015611b0857506001548311155b611b7a576040517f08c379a00000000000000000000000000000000000000000000000000000000081526004018080602001828103825260118152602001807f496e76616c696420696d6167652049442100000000000000000000000000000081525060200191505060405180910390fd5b611b82612325565b600260008581526020019081526020016000206040518061010001604052908160008201548152602001600182018054600181600116156101000203166002900480601f016020809104026020016040519081016040528092919081815260200182805460018160011615610100020316600290048015611c445780601f10611c1957610100808354040283529160200191611c44565b820191906000526020600020905b815481529060010190602001808311611c2757829003601f168201915b50505050508152602001600282018054600181600116156101000203166002900480601f016020809104026020016040519081016040528092919081815260200182805460018160011615610100020316600290048015611ce65780601f10611cbb57610100808354040283529160200191611ce6565b820191906000526020600020905b815481529060010190602001808311611cc957829003601f168201915b50505050508152602001600382018054600181600116156101000203166002900480601f016020809104026020016040519081016040528092919081815260200182805460018160011615610100020316600290048015611d885780601f10611d5d57610100808354040283529160200191611d88565b820191906000526020600020905b815481529060010190602001808311611d6b57829003601f168201915b50505050508152602001600482018054600181600116156101000203166002900480601f016020809104026020016040519081016040528092919081815260200182805460018160011615610100020316600290048015611e2a5780601f10611dff57610100808354040283529160200191611e2a565b820191906000526020600020905b815481529060010190602001808311611e0d57829003601f168201915b50505050508152602001600582015481526020016006820160009054906101000a900460ff161515151581526020016006820160019054906101000a900473ffffffffffffffffffffffffffffffffffffffff1673ffffffffffffffffffffffffffffffffffffffff1673ffffffffffffffffffffffffffffffffffffffff1681525050905060008160e0015190508160a001518314611f32576040517f08c379a00000000000000000000000000000000000000000000000000000000081526004018080602001828103825260178152602001807f54686520707269636520646f65736e2774206d6174636800000000000000000081525060200191505060405180910390fd5b8373ffffffffffffffffffffffffffffffffffffffff168173ffffffffffffffffffffffffffffffffffffffff161415611fb7576040517f08c379a00000000000000000000000000000000000000000000000000000000081526004018080602001828103825260328152602001806123a86032913960400191505060405180910390fd5b600560008573ffffffffffffffffffffffffffffffffffffffff1673ffffffffffffffffffffffffffffffffffffffff168152602001908152602001600020600086815260200190815260200160002060009054906101000a900460ff161561206b576040517f08c379a00000000000000000000000000000000000000000000000000000000081526004018080602001828103825260238152602001806123da6023913960400191505060405180910390fd5b6001600560008673ffffffffffffffffffffffffffffffffffffffff1673ffffffffffffffffffffffffffffffffffffffff168152602001908152602001600020600087815260200190815260200160002060006101000a81548160ff021916908315150217905550600460008573ffffffffffffffffffffffffffffffffffffffff1673ffffffffffffffffffffffffffffffffffffffff1681526020019081526020016000208590806001815401808255809150509060018203906000526020600020016000909192909190915055507fb378acf5af97990c8d7358e5d586c8afa237ab66111dcbc96d3f60da98dcc2968260000151836020015184604001518560a001518660e001516040518086815260200180602001806020018581526020018473ffffffffffffffffffffffffffffffffffffffff1673ffffffffffffffffffffffffffffffffffffffff168152602001838103835287818151815260200191508051906020019080838360005b838110156121f95780820151818401526020810190506121de565b50505050905090810190601f1680156122265780820380516001836020036101000a031916815260200191505b50838103825286818151815260200191508051906020019080838360005b8381101561225f578082015181840152602081019050612244565b50505050905090810190601f16801561228c5780820380516001836020036101000a031916815260200191505b5097505050505050505060405180910390a15050505050565b828054600181600116156101000203166002900490600052602060002090601f016020900481019282601f106122e657805160ff1916838001178555612314565b82800160010185558215612314579182015b828111156123135782518255916020019190600101906122f8565b5b5090506123219190612382565b5090565b604051806101000160405280600081526020016060815260200160608152602001606081526020016060815260200160008152602001600015158152602001600073ffffffffffffffffffffffffffffffffffffffff1681525090565b6123a491905b808211156123a0576000816000905550600101612388565b5090565b9056fe50686f746f6772617068657220646f65736e2774206e65656420746f20627579206869732f686572206f776e20696d616765596f75206861766520616c726561647920626f75676874207468697320696d61676521a265627a7a72315820deb2e1c2495ec928a822398abc6357cab0c979323e1c03411251e5323e03ff5964736f6c63430005100032",
  "source": "pragma solidity >=0.5.16 <0.7.0;\n\nimport \"./PhotoBlockToken.sol\";\n\ncontract ImageMarketPlace is TokenRecipient {\n    string public name;\n    uint public imageCount = 0;\n    mapping(uint => Image) public images;\n    mapping(address => uint[]) private imageUploaded;\n    mapping(address => uint[]) private imageBought;\n    mapping(address => mapping(uint => bool)) public imagesPaid;\n    mapping(string => bool) private imageExist;\n\n    constructor() public {\n        name = \"PhotoStock\";\n    }\n\n    struct Image {\n        uint id;\n        string name;\n        string ipfsHash;\n        string ext;\n        string mime;\n        uint price;\n        bool purchased;\n        address payable owner;\n    }\n\n    event ImageCreated(\n        uint id,\n        string name,\n        string ipfsHash,\n        string ext,\n        string mime,\n        uint price,\n        bool purchased,\n        address payable owner\n    );\n\n    event ImageEdited(\n        uint id,\n        string name,\n        uint price\n    );\n\n    event ImagePurchased(\n        uint id,\n        string name,\n        string ipfsHash,\n        uint price,\n        address payable owner\n    );\n\n    modifier onlyImageOwner(uint256 _id){\n        require(images[_id].owner == msg.sender, \"Only copyright holder can edit!\");\n        _;\n    }\n\n    function imagesUploaded() public view returns(uint[] memory){\n        return imageUploaded[msg.sender];\n    }\n\n    function imagesBought() public view returns(uint[] memory){\n        return imageBought[msg.sender];\n    }\n\n    function createImage(string memory _name, uint _price, string memory _ipfsHash, \n                         string memory _fileExt, string memory _fileMime) public {\n        require(bytes(_ipfsHash).length > 0, \"Invalid IPFS address!\");\n        require(bytes(_name).length > 0, \"Name cannot be empty!\");\n        require(_price > 0, \"Price must be not 0!\");\n        require(!imageExist[_ipfsHash]);\n        imageCount ++;\n        imageExist[_ipfsHash] = true;\n        images[imageCount] = Image(imageCount, _name, _ipfsHash, _fileExt, _fileMime, _price, false, msg.sender);\n        imageUploaded[msg.sender].push(imageCount);\n        emit ImageCreated(imageCount, _name, _ipfsHash, _fileExt, _fileMime, _price, false, msg.sender);\n    }\n\n    function purchaseImage(uint _id) public payable {\n        _purchaseImageFor(_id, msg.sender, msg.value);\n    }\n\n    function _purchaseImageFor(uint _id, address _buyer, uint256 _value) private {\n        require(_id > 0 && _id <= imageCount, \"Invalid image ID!\");\n        Image memory _img = images[_id];\n\n        address payable _seller = _img.owner;\n        require(_value == _img.price, \"The price doesn't match\");\n        require(_seller != _buyer, \"Photographer doesn't need to buy his/her own image\");\n        require(!imagesPaid[_buyer][_id], \"You have already bought this image!\");\n        imagesPaid[_buyer][_id] = true;\n        imageBought[_buyer].push(_id);\n        emit ImagePurchased(_img.id, _img.name, _img.ipfsHash, _img.price, _img.owner);\n    }\n\n    function tokenFallback(address _from, uint256 _value, bytes memory _extraData) public returns(bool success){\n        uint256 payloadSize;\n        uint256 payload;\n        assembly {\n            payloadSize := mload(_extraData)\n            payload := mload(add(_extraData, 0x20))\n        }\n        payload = payload >> 8*(32 - payloadSize);\n        _purchaseImageFor(payload, _from, _value);\n        return true;\n    }\n\n    function editImageDescr(uint _id, string memory _newName, uint _newPrice) public onlyImageOwner(_id){\n        Image memory img = images[_id];\n        img.name = _newName;\n        img.price = _newPrice;\n        images[_id] = img;\n        emit ImageEdited(_id, _newName, _newPrice);\n    }\n}",
  "sourcePath": "/Users/hadihs/Documents/photo/contracts/ImageMarketPlace.sol",
  "compiler": {
    "name": "solc",
    "version": "0.5.16+commit.9c3226ce.Emscripten.clang"
  },
  "schemaVersion": "3.0.23",
  "updatedAt": "2020-05-30T08:58:59.245Z",
  "networkType": "ethereum",
  "devdoc": {
    "methods": {}
  },
  "userdoc": {
    "methods": {}
  }
}