{
  "contractName": "ImageMarketPlace",
  "abi": [
    {
      "inputs": [
        {
          "internalType": "contract PhotoBlockToken",
          "name": "_tokenContract",
          "type": "address"
        },
        {
          "internalType": "uint256",
          "name": "_tokenPrice",
          "type": "uint256"
        }
      ],
      "payable": false,
      "stateMutability": "nonpayable",
      "type": "constructor"
    },
    {
      "anonymous": false,
      "inputs": [
        {
          "indexed": false,
          "internalType": "uint256",
          "name": "id",
          "type": "uint256"
        },
        {
          "indexed": false,
          "internalType": "string",
          "name": "name",
          "type": "string"
        },
        {
          "indexed": false,
          "internalType": "string",
          "name": "ipfsHash",
          "type": "string"
        },
        {
          "indexed": false,
          "internalType": "string",
          "name": "ext",
          "type": "string"
        },
        {
          "indexed": false,
          "internalType": "string",
          "name": "mime",
          "type": "string"
        },
        {
          "indexed": false,
          "internalType": "uint256",
          "name": "price",
          "type": "uint256"
        },
        {
          "indexed": false,
          "internalType": "bool",
          "name": "purchased",
          "type": "bool"
        },
        {
          "indexed": false,
          "internalType": "enum ImageMarketPlace.Status",
          "name": "status",
          "type": "uint8"
        },
        {
          "indexed": false,
          "internalType": "address payable",
          "name": "owner",
          "type": "address"
        }
      ],
      "name": "ImageCreated",
      "type": "event"
    },
    {
      "anonymous": false,
      "inputs": [
        {
          "indexed": false,
          "internalType": "uint256",
          "name": "id",
          "type": "uint256"
        },
        {
          "indexed": false,
          "internalType": "string",
          "name": "name",
          "type": "string"
        },
        {
          "indexed": false,
          "internalType": "uint256",
          "name": "price",
          "type": "uint256"
        },
        {
          "indexed": false,
          "internalType": "enum ImageMarketPlace.Status",
          "name": "status",
          "type": "uint8"
        }
      ],
      "name": "ImageEdited",
      "type": "event"
    },
    {
      "anonymous": false,
      "inputs": [
        {
          "indexed": false,
          "internalType": "uint256",
          "name": "id",
          "type": "uint256"
        },
        {
          "indexed": false,
          "internalType": "string",
          "name": "name",
          "type": "string"
        },
        {
          "indexed": false,
          "internalType": "string",
          "name": "ipfsHash",
          "type": "string"
        },
        {
          "indexed": false,
          "internalType": "uint256",
          "name": "price",
          "type": "uint256"
        },
        {
          "indexed": false,
          "internalType": "address payable",
          "name": "owner",
          "type": "address"
        }
      ],
      "name": "ImagePurchased",
      "type": "event"
    },
    {
      "anonymous": false,
      "inputs": [
        {
          "indexed": false,
          "internalType": "uint256",
          "name": "id",
          "type": "uint256"
        },
        {
          "indexed": false,
          "internalType": "uint256",
          "name": "imageId",
          "type": "uint256"
        },
        {
          "indexed": false,
          "internalType": "string",
          "name": "content",
          "type": "string"
        },
        {
          "indexed": false,
          "internalType": "uint256",
          "name": "rating",
          "type": "uint256"
        },
        {
          "indexed": false,
          "internalType": "uint256",
          "name": "datePost",
          "type": "uint256"
        },
        {
          "indexed": false,
          "internalType": "address payable",
          "name": "by",
          "type": "address"
        }
      ],
      "name": "ImageReviewed",
      "type": "event"
    },
    {
      "anonymous": false,
      "inputs": [
        {
          "indexed": false,
          "internalType": "address",
          "name": "_buyer",
          "type": "address"
        },
        {
          "indexed": false,
          "internalType": "uint256",
          "name": "_amount",
          "type": "uint256"
        }
      ],
      "name": "Sell",
      "type": "event"
    },
    {
      "constant": true,
      "inputs": [],
      "name": "admin",
      "outputs": [
        {
          "internalType": "address payable",
          "name": "",
          "type": "address"
        }
      ],
      "payable": false,
      "stateMutability": "view",
      "type": "function"
    },
    {
      "constant": false,
      "inputs": [
        {
          "internalType": "uint256",
          "name": "_numberOfTokens",
          "type": "uint256"
        }
      ],
      "name": "buyTokens",
      "outputs": [],
      "payable": true,
      "stateMutability": "payable",
      "type": "function"
    },
    {
      "constant": false,
      "inputs": [],
      "name": "endSale",
      "outputs": [],
      "payable": false,
      "stateMutability": "nonpayable",
      "type": "function"
    },
    {
      "constant": true,
      "inputs": [
        {
          "internalType": "address",
          "name": "",
          "type": "address"
        },
        {
          "internalType": "uint256",
          "name": "",
          "type": "uint256"
        }
      ],
      "name": "haveReviewed",
      "outputs": [
        {
          "internalType": "bool",
          "name": "",
          "type": "bool"
        }
      ],
      "payable": false,
      "stateMutability": "view",
      "type": "function"
    },
    {
      "constant": true,
      "inputs": [],
      "name": "imageCount",
      "outputs": [
        {
          "internalType": "uint256",
          "name": "",
          "type": "uint256"
        }
      ],
      "payable": false,
      "stateMutability": "view",
      "type": "function"
    },
    {
      "constant": true,
      "inputs": [
        {
          "internalType": "uint256",
          "name": "",
          "type": "uint256"
        }
      ],
      "name": "images",
      "outputs": [
        {
          "internalType": "uint256",
          "name": "id",
          "type": "uint256"
        },
        {
          "internalType": "string",
          "name": "name",
          "type": "string"
        },
        {
          "internalType": "string",
          "name": "ipfsHash",
          "type": "string"
        },
        {
          "internalType": "string",
          "name": "ext",
          "type": "string"
        },
        {
          "internalType": "string",
          "name": "mime",
          "type": "string"
        },
        {
          "internalType": "uint256",
          "name": "price",
          "type": "uint256"
        },
        {
          "internalType": "bool",
          "name": "purchased",
          "type": "bool"
        },
        {
          "internalType": "enum ImageMarketPlace.Status",
          "name": "status",
          "type": "uint8"
        },
        {
          "internalType": "address payable",
          "name": "owner",
          "type": "address"
        }
      ],
      "payable": false,
      "stateMutability": "view",
      "type": "function"
    },
    {
      "constant": true,
      "inputs": [
        {
          "internalType": "address",
          "name": "",
          "type": "address"
        },
        {
          "internalType": "uint256",
          "name": "",
          "type": "uint256"
        }
      ],
      "name": "imagesPaid",
      "outputs": [
        {
          "internalType": "bool",
          "name": "",
          "type": "bool"
        }
      ],
      "payable": false,
      "stateMutability": "view",
      "type": "function"
    },
    {
      "constant": true,
      "inputs": [],
      "name": "name",
      "outputs": [
        {
          "internalType": "string",
          "name": "",
          "type": "string"
        }
      ],
      "payable": false,
      "stateMutability": "view",
      "type": "function"
    },
    {
      "constant": true,
      "inputs": [],
      "name": "reviewCount",
      "outputs": [
        {
          "internalType": "uint256",
          "name": "",
          "type": "uint256"
        }
      ],
      "payable": false,
      "stateMutability": "view",
      "type": "function"
    },
    {
      "constant": true,
      "inputs": [
        {
          "internalType": "uint256",
          "name": "",
          "type": "uint256"
        }
      ],
      "name": "reviews",
      "outputs": [
        {
          "internalType": "uint256",
          "name": "id",
          "type": "uint256"
        },
        {
          "internalType": "address payable",
          "name": "by",
          "type": "address"
        },
        {
          "internalType": "string",
          "name": "content",
          "type": "string"
        },
        {
          "internalType": "uint256",
          "name": "rate",
          "type": "uint256"
        },
        {
          "internalType": "uint256",
          "name": "datePost",
          "type": "uint256"
        }
      ],
      "payable": false,
      "stateMutability": "view",
      "type": "function"
    },
    {
      "constant": true,
      "inputs": [
        {
          "internalType": "uint256",
          "name": "",
          "type": "uint256"
        }
      ],
      "name": "stats",
      "outputs": [
        {
          "internalType": "uint256",
          "name": "totalRate",
          "type": "uint256"
        },
        {
          "internalType": "uint256",
          "name": "total",
          "type": "uint256"
        }
      ],
      "payable": false,
      "stateMutability": "view",
      "type": "function"
    },
    {
      "constant": true,
      "inputs": [],
      "name": "tokenContract",
      "outputs": [
        {
          "internalType": "contract PhotoBlockToken",
          "name": "",
          "type": "address"
        }
      ],
      "payable": false,
      "stateMutability": "view",
      "type": "function"
    },
    {
      "constant": true,
      "inputs": [],
      "name": "tokenPrice",
      "outputs": [
        {
          "internalType": "uint256",
          "name": "",
          "type": "uint256"
        }
      ],
      "payable": false,
      "stateMutability": "view",
      "type": "function"
    },
    {
      "constant": true,
      "inputs": [],
      "name": "tokensSold",
      "outputs": [
        {
          "internalType": "uint256",
          "name": "",
          "type": "uint256"
        }
      ],
      "payable": false,
      "stateMutability": "view",
      "type": "function"
    },
    {
      "constant": true,
      "inputs": [],
      "name": "imagesUploaded",
      "outputs": [
        {
          "internalType": "uint256[]",
          "name": "",
          "type": "uint256[]"
        }
      ],
      "payable": false,
      "stateMutability": "view",
      "type": "function"
    },
    {
      "constant": true,
      "inputs": [],
      "name": "imagesBought",
      "outputs": [
        {
          "internalType": "uint256[]",
          "name": "",
          "type": "uint256[]"
        }
      ],
      "payable": false,
      "stateMutability": "view",
      "type": "function"
    },
    {
      "constant": true,
      "inputs": [
        {
          "internalType": "uint256",
          "name": "imageId",
          "type": "uint256"
        }
      ],
      "name": "imagesReviews",
      "outputs": [
        {
          "internalType": "uint256[]",
          "name": "",
          "type": "uint256[]"
        }
      ],
      "payable": false,
      "stateMutability": "view",
      "type": "function"
    },
    {
      "constant": false,
      "inputs": [
        {
          "internalType": "string",
          "name": "_name",
          "type": "string"
        },
        {
          "internalType": "uint256",
          "name": "_price",
          "type": "uint256"
        },
        {
          "internalType": "string",
          "name": "_ipfsHash",
          "type": "string"
        },
        {
          "internalType": "string",
          "name": "_fileExt",
          "type": "string"
        },
        {
          "internalType": "string",
          "name": "_fileMime",
          "type": "string"
        },
        {
          "internalType": "uint256",
          "name": "_status",
          "type": "uint256"
        }
      ],
      "name": "createImage",
      "outputs": [],
      "payable": false,
      "stateMutability": "nonpayable",
      "type": "function"
    },
    {
      "constant": false,
      "inputs": [
        {
          "internalType": "uint256",
          "name": "_id",
          "type": "uint256"
        }
      ],
      "name": "purchaseImage",
      "outputs": [],
      "payable": true,
      "stateMutability": "payable",
      "type": "function"
    },
    {
      "constant": false,
      "inputs": [
        {
          "internalType": "address",
          "name": "_from",
          "type": "address"
        },
        {
          "internalType": "uint256",
          "name": "_value",
          "type": "uint256"
        },
        {
          "internalType": "bytes",
          "name": "_extraData",
          "type": "bytes"
        }
      ],
      "name": "tokenFallback",
      "outputs": [
        {
          "internalType": "bool",
          "name": "success",
          "type": "bool"
        }
      ],
      "payable": false,
      "stateMutability": "nonpayable",
      "type": "function"
    },
    {
      "constant": false,
      "inputs": [
        {
          "internalType": "uint256",
          "name": "_id",
          "type": "uint256"
        },
        {
          "internalType": "string",
          "name": "_newName",
          "type": "string"
        },
        {
          "internalType": "uint256",
          "name": "_newPrice",
          "type": "uint256"
        },
        {
          "internalType": "uint256",
          "name": "_newStatus",
          "type": "uint256"
        }
      ],
      "name": "editImageDescr",
      "outputs": [],
      "payable": false,
      "stateMutability": "nonpayable",
      "type": "function"
    },
    {
      "constant": false,
      "inputs": [
        {
          "internalType": "uint256",
          "name": "_imageId",
          "type": "uint256"
        },
        {
          "internalType": "string",
          "name": "_content",
          "type": "string"
        },
        {
          "internalType": "uint256",
          "name": "_rateValue",
          "type": "uint256"
        },
        {
          "internalType": "uint256",
          "name": "_datePost",
          "type": "uint256"
        }
      ],
      "name": "postRate",
      "outputs": [],
      "payable": false,
      "stateMutability": "nonpayable",
      "type": "function"
    }
  ],
  "bytecode": "0x6080604052600060055560006006553480156200001b57600080fd5b5060405162004b5138038062004b51833981810160405260408110156200004157600080fd5b8101908080519060200190929190805190602001909291905050508181336000806101000a81548173ffffffffffffffffffffffffffffffffffffffff021916908373ffffffffffffffffffffffffffffffffffffffff16021790555081600160006101000a81548173ffffffffffffffffffffffffffffffffffffffff021916908373ffffffffffffffffffffffffffffffffffffffff1602179055508060028190555050506040518060400160405280600a81526020017f50686f746f53746f636b0000000000000000000000000000000000000000000081525060049080519060200190620001359291906200013e565b505050620001ed565b828054600181600116156101000203166002900490600052602060002090601f016020900481019282601f106200018157805160ff1916838001178555620001b2565b82800160010185558215620001b2579182015b82811115620001b157825182559160200191906001019062000194565b5b509050620001c19190620001c5565b5090565b620001ea91905b80821115620001e6576000816000905550600101620001cc565b5090565b90565b61495480620001fd6000396000f3fe6080604052600436106101355760003560e01c806384856482116100ab578063d1947c1b1161006f578063d1947c1b14610996578063e65f629614610a7c578063e83ddcea14610ae8578063edb8bc6514610be4578063eff5924f14610e85578063f851a44014610eb057610135565b8063848564821461053f57806392053b6314610798578063ad217ae5146107c3578063c0ee0b8a14610819578063ce8651621461092357610135565b8063380d831b116100fd578063380d831b146103e1578063459965b6146103f8578063518ab2a81461042657806355a373d6146104515780635e06bfbe146104a85780637ff9b5961461051457610135565b8063058744811461013a57806306fdde03146101ad5780631dc51cf51461023d578063278c2710146102cd5780633610724e146103b3575b600080fd5b34801561014657600080fd5b506101936004803603604081101561015d57600080fd5b81019080803573ffffffffffffffffffffffffffffffffffffffff16906020019092919080359060200190929190505050610f07565b604051808215151515815260200191505060405180910390f35b3480156101b957600080fd5b506101c2610f36565b6040518080602001828103825283818151815260200191508051906020019080838360005b838110156102025780820151818401526020810190506101e7565b50505050905090810190601f16801561022f5780820380516001836020036101000a031916815260200191505b509250505060405180910390f35b34801561024957600080fd5b506102766004803603602081101561026057600080fd5b8101908080359060200190929190505050610fd4565b6040518080602001828103825283818151815260200191508051906020019060200280838360005b838110156102b957808201518184015260208101905061029e565b505050509050019250505060405180910390f35b3480156102d957600080fd5b506103b1600480360360808110156102f057600080fd5b81019080803590602001909291908035906020019064010000000081111561031757600080fd5b82018360208201111561032957600080fd5b8035906020019184600183028401116401000000008311171561034b57600080fd5b91908080601f016020809104026020016040519081016040528093929190818152602001838380828437600081840152601f19601f820116905080830192505050505050509192919290803590602001909291908035906020019092919050505061103f565b005b6103df600480360360208110156103c957600080fd5b8101908080359060200190929190505050611eea565b005b3480156103ed57600080fd5b506103f6612296565b005b6104246004803603602081101561040e57600080fd5b8101908080359060200190929190505050612612565b005b34801561043257600080fd5b5061043b612620565b6040518082815260200191505060405180910390f35b34801561045d57600080fd5b50610466612626565b604051808273ffffffffffffffffffffffffffffffffffffffff1673ffffffffffffffffffffffffffffffffffffffff16815260200191505060405180910390f35b3480156104b457600080fd5b506104bd61264c565b6040518080602001828103825283818151815260200191508051906020019060200280838360005b838110156105005780820151818401526020810190506104e5565b505050509050019250505060405180910390f35b34801561052057600080fd5b506105296126e1565b6040518082815260200191505060405180910390f35b34801561054b57600080fd5b506105786004803603602081101561056257600080fd5b81019080803590602001909291905050506126e7565b604051808a815260200180602001806020018060200180602001898152602001881515151581526020018760028111156105ae57fe5b60ff1681526020018673ffffffffffffffffffffffffffffffffffffffff1673ffffffffffffffffffffffffffffffffffffffff16815260200185810385528d818151815260200191508051906020019080838360005b83811015610620578082015181840152602081019050610605565b50505050905090810190601f16801561064d5780820380516001836020036101000a031916815260200191505b5085810384528c818151815260200191508051906020019080838360005b8381101561068657808201518184015260208101905061066b565b50505050905090810190601f1680156106b35780820380516001836020036101000a031916815260200191505b5085810383528b818151815260200191508051906020019080838360005b838110156106ec5780820151818401526020810190506106d1565b50505050905090810190601f1680156107195780820380516001836020036101000a031916815260200191505b5085810382528a818151815260200191508051906020019080838360005b83811015610752578082015181840152602081019050610737565b50505050905090810190601f16801561077f5780820380516001836020036101000a031916815260200191505b509d505050505050505050505050505060405180910390f35b3480156107a457600080fd5b506107ad6129cf565b6040518082815260200191505060405180910390f35b3480156107cf57600080fd5b506107fc600480360360208110156107e657600080fd5b81019080803590602001909291905050506129d5565b604051808381526020018281526020019250505060405180910390f35b34801561082557600080fd5b506109096004803603606081101561083c57600080fd5b81019080803573ffffffffffffffffffffffffffffffffffffffff169060200190929190803590602001909291908035906020019064010000000081111561088357600080fd5b82018360208201111561089557600080fd5b803590602001918460018302840111640100000000831117156108b757600080fd5b91908080601f016020809104026020016040519081016040528093929190818152602001838380828437600081840152601f19601f8201169050808301925050505050505091929192905050506129f9565b604051808215151515815260200191505060405180910390f35b34801561092f57600080fd5b5061097c6004803603604081101561094657600080fd5b81019080803573ffffffffffffffffffffffffffffffffffffffff16906020019092919080359060200190929190505050612a2d565b604051808215151515815260200191505060405180910390f35b3480156109a257600080fd5b50610a7a600480360360808110156109b957600080fd5b8101908080359060200190929190803590602001906401000000008111156109e057600080fd5b8201836020820111156109f257600080fd5b80359060200191846001830284011164010000000083111715610a1457600080fd5b91908080601f016020809104026020016040519081016040528093929190818152602001838380828437600081840152601f19601f8201169050808301925050505050505091929192908035906020019092919080359060200190929190505050612a5c565b005b348015610a8857600080fd5b50610a916132c7565b6040518080602001828103825283818151815260200191508051906020019060200280838360005b83811015610ad4578082015181840152602081019050610ab9565b505050509050019250505060405180910390f35b348015610af457600080fd5b50610b2160048036036020811015610b0b57600080fd5b810190808035906020019092919050505061335c565b604051808681526020018573ffffffffffffffffffffffffffffffffffffffff1673ffffffffffffffffffffffffffffffffffffffff16815260200180602001848152602001838152602001828103825285818151815260200191508051906020019080838360005b83811015610ba5578082015181840152602081019050610b8a565b50505050905090810190601f168015610bd25780820380516001836020036101000a031916815260200191505b50965050505050505060405180910390f35b348015610bf057600080fd5b50610e83600480360360c0811015610c0757600080fd5b8101908080359060200190640100000000811115610c2457600080fd5b820183602082011115610c3657600080fd5b80359060200191846001830284011164010000000083111715610c5857600080fd5b91908080601f016020809104026020016040519081016040528093929190818152602001838380828437600081840152601f19601f8201169050808301925050505050505091929192908035906020019092919080359060200190640100000000811115610cc557600080fd5b820183602082011115610cd757600080fd5b80359060200191846001830284011164010000000083111715610cf957600080fd5b91908080601f016020809104026020016040519081016040528093929190818152602001838380828437600081840152601f19601f82011690508083019250505050505050919291929080359060200190640100000000811115610d5c57600080fd5b820183602082011115610d6e57600080fd5b80359060200191846001830284011164010000000083111715610d9057600080fd5b91908080601f016020809104026020016040519081016040528093929190818152602001838380828437600081840152601f19601f82011690508083019250505050505050919291929080359060200190640100000000811115610df357600080fd5b820183602082011115610e0557600080fd5b80359060200191846001830284011164010000000083111715610e2757600080fd5b91908080601f016020809104026020016040519081016040528093929190818152602001838380828437600081840152601f19601f8201169050808301925050505050505091929192908035906020019092919050505061344a565b005b348015610e9157600080fd5b50610e9a613c19565b6040518082815260200191505060405180910390f35b348015610ebc57600080fd5b50610ec5613c1f565b604051808273ffffffffffffffffffffffffffffffffffffffff1673ffffffffffffffffffffffffffffffffffffffff16815260200191505060405180910390f35b600a6020528160005260406000206020528060005260406000206000915091509054906101000a900460ff1681565b60048054600181600116156101000203166002900480601f016020809104026020016040519081016040528092919081815260200182805460018160011615610100020316600290048015610fcc5780601f10610fa157610100808354040283529160200191610fcc565b820191906000526020600020905b815481529060010190602001808311610faf57829003601f168201915b505050505081565b6060600d600083815260200190815260200160002080548060200260200160405190810160405280929190818152602001828054801561103357602002820191906000526020600020905b81548152602001906001019080831161101f575b50505050509050919050565b60008411801561105157506005548411155b6110c3576040517f08c379a00000000000000000000000000000000000000000000000000000000081526004018080602001828103825260108152602001807f496e76616c696420696d6167652049440000000000000000000000000000000081525060200191505060405180910390fd5b600073ffffffffffffffffffffffffffffffffffffffff163373ffffffffffffffffffffffffffffffffffffffff161415611166576040517f08c379a000000000000000000000000000000000000000000000000000000000815260040180806020018281038252600f8152602001807f496e76616c69642061646472657373000000000000000000000000000000000081525060200191505060405180910390fd5b600081116111dc576040517f08c379a000000000000000000000000000000000000000000000000000000000815260040180806020018281038252600c8152602001807f496e76616c69642044617465000000000000000000000000000000000000000081525060200191505060405180910390fd5b6000821180156111ed575060058211155b61125f576040517f08c379a00000000000000000000000000000000000000000000000000000000081526004018080602001828103825260128152602001807f496e76616c696420726174652076616c7565000000000000000000000000000081525060200191505060405180910390fd5b600a60003373ffffffffffffffffffffffffffffffffffffffff1673ffffffffffffffffffffffffffffffffffffffff168152602001908152602001600020600085815260200190815260200160002060009054906101000a900460ff1661132f576040517f08c379a000000000000000000000000000000000000000000000000000000000815260040180806020018281038252601e8152602001807f53656e646572206861736e277420626f756768742074686520696d616765000081525060200191505060405180910390fd5b600f60003373ffffffffffffffffffffffffffffffffffffffff1673ffffffffffffffffffffffffffffffffffffffff168152602001908152602001600020600085815260200190815260200160002060009054906101000a900460ff1615611400576040517f08c379a000000000000000000000000000000000000000000000000000000000815260040180806020018281038252601b8152602001807f53656e6465722063616e206f6e6c7920726576696577206f6e6365000000000081525060200191505060405180910390fd5b6114086146f0565b600760008681526020019081526020016000206040518061012001604052908160008201548152602001600182018054600181600116156101000203166002900480601f0160208091040260200160405190810160405280929190818152602001828054600181600116156101000203166002900480156114ca5780601f1061149f576101008083540402835291602001916114ca565b820191906000526020600020905b8154815290600101906020018083116114ad57829003601f168201915b50505050508152602001600282018054600181600116156101000203166002900480601f01602080910402602001604051908101604052809291908181526020018280546001816001161561010002031660029004801561156c5780601f106115415761010080835404028352916020019161156c565b820191906000526020600020905b81548152906001019060200180831161154f57829003601f168201915b50505050508152602001600382018054600181600116156101000203166002900480601f01602080910402602001604051908101604052809291908181526020018280546001816001161561010002031660029004801561160e5780601f106115e35761010080835404028352916020019161160e565b820191906000526020600020905b8154815290600101906020018083116115f157829003601f168201915b50505050508152602001600482018054600181600116156101000203166002900480601f0160208091040260200160405190810160405280929190818152602001828054600181600116156101000203166002900480156116b05780601f10611685576101008083540402835291602001916116b0565b820191906000526020600020905b81548152906001019060200180831161169357829003601f168201915b50505050508152602001600582015481526020016006820160009054906101000a900460ff161515151581526020016006820160019054906101000a900460ff1660028111156116fc57fe5b600281111561170757fe5b81526020016006820160029054906101000a900473ffffffffffffffffffffffffffffffffffffffff1673ffffffffffffffffffffffffffffffffffffffff1673ffffffffffffffffffffffffffffffffffffffff168152505090503373ffffffffffffffffffffffffffffffffffffffff1681610100015173ffffffffffffffffffffffffffffffffffffffff16141561180a576040517f08c379a00000000000000000000000000000000000000000000000000000000081526004018080602001828103825260128152602001807f4f776e65722063616e277420726576696577000000000000000000000000000081525060200191505060405180910390fd5b6001600281111561181757fe5b8160e00151600281111561182757fe5b1461187d576040517f08c379a00000000000000000000000000000000000000000000000000000000081526004018080602001828103825260248152602001806148966024913960400191505060405180910390fd5b60066000815480929190600101919050555061189761475f565b6040518060a0016040528060065481526020013373ffffffffffffffffffffffffffffffffffffffff1681526020018681526020018581526020018481525090506118e06147a4565b600c600088815260200190815260200160002060405180604001604052908160008201548152602001600182015481525050905084816000015101816000018181525050600181602001510181602001818152505080600c60008981526020019081526020016000206000820151816000015560208201518160010155905050600d6000888152602001908152602001600020600654908060018154018082558091505090600182039060005260206000200160009091929091909150555081600e600060065481526020019081526020016000206000820151816000015560208201518160010160006101000a81548173ffffffffffffffffffffffffffffffffffffffff021916908373ffffffffffffffffffffffffffffffffffffffff1602179055506040820151816002019080519060200190611a229291906147be565b506060820151816003015560808201518160040155905050601060003373ffffffffffffffffffffffffffffffffffffffff1673ffffffffffffffffffffffffffffffffffffffff168152602001908152602001600020600088815260200190815260200160002060009054906101000a900460ff16158015611b7e575060018060009054906101000a900473ffffffffffffffffffffffffffffffffffffffff1673ffffffffffffffffffffffffffffffffffffffff166370a08231306040518263ffffffff1660e01b8152600401808273ffffffffffffffffffffffffffffffffffffffff1673ffffffffffffffffffffffffffffffffffffffff16815260200191505060206040518083038186803b158015611b4057600080fd5b505afa158015611b54573d6000803e3d6000fd5b505050506040513d6020811015611b6a57600080fd5b810190808051906020019092919050505010155b15611bf857611b8e336001613c44565b6001601060003373ffffffffffffffffffffffffffffffffffffffff1673ffffffffffffffffffffffffffffffffffffffff168152602001908152602001600020600089815260200190815260200160002060006101000a81548160ff0219169083151502179055505b6064816020015110158015611c1e575060048160200151826000015181611c1b57fe5b04115b8015611c8a57506010600084610100015173ffffffffffffffffffffffffffffffffffffffff1673ffffffffffffffffffffffffffffffffffffffff168152602001908152602001600020600088815260200190815260200160002060009054906101000a900460ff16155b8015611d7057506002600160009054906101000a900473ffffffffffffffffffffffffffffffffffffffff1673ffffffffffffffffffffffffffffffffffffffff166370a08231306040518263ffffffff1660e01b8152600401808273ffffffffffffffffffffffffffffffffffffffff1673ffffffffffffffffffffffffffffffffffffffff16815260200191505060206040518083038186803b158015611d3257600080fd5b505afa158015611d46573d6000803e3d6000fd5b505050506040513d6020811015611d5c57600080fd5b810190808051906020019092919050505010155b15611def57611d80336002613c44565b60016010600085610100015173ffffffffffffffffffffffffffffffffffffffff1673ffffffffffffffffffffffffffffffffffffffff168152602001908152602001600020600089815260200190815260200160002060006101000a81548160ff0219169083151502179055505b7fbc506ba8467a59a8f8bdb45c5cf4998f7262329af8b592024dabf89eeb597716600654888888883360405180878152602001868152602001806020018581526020018481526020018373ffffffffffffffffffffffffffffffffffffffff1673ffffffffffffffffffffffffffffffffffffffff168152602001828103825286818151815260200191508051906020019080838360005b83811015611ea2578082015181840152602081019050611e87565b50505050905090810190601f168015611ecf5780820380516001836020036101000a031916815260200191505b5097505050505050505060405180910390a150505050505050565b611eff60025482613e1990919063ffffffff16565b3414611f73576040517f08c379a00000000000000000000000000000000000000000000000000000000081526004018080602001828103825260128152602001807f496e73756666696369656e74204574686572000000000000000000000000000081525060200191505060405180910390fd5b80600160009054906101000a900473ffffffffffffffffffffffffffffffffffffffff1673ffffffffffffffffffffffffffffffffffffffff166370a08231306040518263ffffffff1660e01b8152600401808273ffffffffffffffffffffffffffffffffffffffff1673ffffffffffffffffffffffffffffffffffffffff16815260200191505060206040518083038186803b15801561201357600080fd5b505afa158015612027573d6000803e3d6000fd5b505050506040513d602081101561203d57600080fd5b810190808051906020019092919050505010156120c2576040517f08c379a00000000000000000000000000000000000000000000000000000000081526004018080602001828103825260188152602001807f4f766572666c6f7720746f6b656e20726571756573746564000000000000000081525060200191505060405180910390fd5b600160009054906101000a900473ffffffffffffffffffffffffffffffffffffffff1673ffffffffffffffffffffffffffffffffffffffff1663a9059cbb33836040518363ffffffff1660e01b8152600401808373ffffffffffffffffffffffffffffffffffffffff1673ffffffffffffffffffffffffffffffffffffffff16815260200182815260200192505050602060405180830381600087803b15801561216b57600080fd5b505af115801561217f573d6000803e3d6000fd5b505050506040513d602081101561219557600080fd5b8101908080519060200190929190505050612218576040517f08c379a00000000000000000000000000000000000000000000000000000000081526004018080602001828103825260108152602001807f4661696c20746f207472616e736665720000000000000000000000000000000081525060200191505060405180910390fd5b806003600082825401925050819055507f5e5e995ce3133561afceaa51a9a154d5db228cd7525d34df5185582c18d3df093382604051808373ffffffffffffffffffffffffffffffffffffffff1673ffffffffffffffffffffffffffffffffffffffff1681526020018281526020019250505060405180910390a150565b6000809054906101000a900473ffffffffffffffffffffffffffffffffffffffff1673ffffffffffffffffffffffffffffffffffffffff163373ffffffffffffffffffffffffffffffffffffffff1614612358576040517f08c379a00000000000000000000000000000000000000000000000000000000081526004018080602001828103825260208152602001807f4f6e6c792061646d696e2063616e20646f2074686973206f7065726174696f6e81525060200191505060405180910390fd5b600160009054906101000a900473ffffffffffffffffffffffffffffffffffffffff1673ffffffffffffffffffffffffffffffffffffffff1663a9059cbb6000809054906101000a900473ffffffffffffffffffffffffffffffffffffffff16600160009054906101000a900473ffffffffffffffffffffffffffffffffffffffff1673ffffffffffffffffffffffffffffffffffffffff166370a08231306040518263ffffffff1660e01b8152600401808273ffffffffffffffffffffffffffffffffffffffff1673ffffffffffffffffffffffffffffffffffffffff16815260200191505060206040518083038186803b15801561245757600080fd5b505afa15801561246b573d6000803e3d6000fd5b505050506040513d602081101561248157600080fd5b81019080805190602001909291905050506040518363ffffffff1660e01b8152600401808373ffffffffffffffffffffffffffffffffffffffff1673ffffffffffffffffffffffffffffffffffffffff16815260200182815260200192505050602060405180830381600087803b1580156124fb57600080fd5b505af115801561250f573d6000803e3d6000fd5b505050506040513d602081101561252557600080fd5b81019080805190602001909291905050506125a8576040517f08c379a00000000000000000000000000000000000000000000000000000000081526004018080602001828103825260118152602001807f5472616e7366657220746f2061646d696e00000000000000000000000000000081525060200191505060405180910390fd5b6000809054906101000a900473ffffffffffffffffffffffffffffffffffffffff1673ffffffffffffffffffffffffffffffffffffffff166108fc479081150290604051600060405180830381858888f1935050505015801561260f573d6000803e3d6000fd5b50565b61261d813334613e9f565b50565b60035481565b600160009054906101000a900473ffffffffffffffffffffffffffffffffffffffff1681565b6060600960003373ffffffffffffffffffffffffffffffffffffffff1673ffffffffffffffffffffffffffffffffffffffff1681526020019081526020016000208054806020026020016040519081016040528092919081815260200182805480156126d757602002820191906000526020600020905b8154815260200190600101908083116126c3575b5050505050905090565b60025481565b6007602052806000526040600020600091509050806000015490806001018054600181600116156101000203166002900480601f0160208091040260200160405190810160405280929190818152602001828054600181600116156101000203166002900480156127995780601f1061276e57610100808354040283529160200191612799565b820191906000526020600020905b81548152906001019060200180831161277c57829003601f168201915b505050505090806002018054600181600116156101000203166002900480601f0160208091040260200160405190810160405280929190818152602001828054600181600116156101000203166002900480156128375780601f1061280c57610100808354040283529160200191612837565b820191906000526020600020905b81548152906001019060200180831161281a57829003601f168201915b505050505090806003018054600181600116156101000203166002900480601f0160208091040260200160405190810160405280929190818152602001828054600181600116156101000203166002900480156128d55780601f106128aa576101008083540402835291602001916128d5565b820191906000526020600020905b8154815290600101906020018083116128b857829003601f168201915b505050505090806004018054600181600116156101000203166002900480601f0160208091040260200160405190810160405280929190818152602001828054600181600116156101000203166002900480156129735780601f1061294857610100808354040283529160200191612973565b820191906000526020600020905b81548152906001019060200180831161295657829003601f168201915b5050505050908060050154908060060160009054906101000a900460ff16908060060160019054906101000a900460ff16908060060160029054906101000a900473ffffffffffffffffffffffffffffffffffffffff16905089565b60055481565b600c6020528060005260406000206000915090508060000154908060010154905082565b600080600083519150602084015190508160200360080281901c9050612a20818787613e9f565b6001925050509392505050565b600f6020528160005260406000206020528060005260406000206000915091509054906101000a900460ff1681565b83600081118015612a6f57506005548111155b612ae1576040517f08c379a00000000000000000000000000000000000000000000000000000000081526004018080602001828103825260118152602001807f496e76616c696420696d6167652049442100000000000000000000000000000081525060200191505060405180910390fd5b3373ffffffffffffffffffffffffffffffffffffffff166007600083815260200190815260200160002060060160029054906101000a900473ffffffffffffffffffffffffffffffffffffffff1673ffffffffffffffffffffffffffffffffffffffff1614612bb8576040517f08c379a000000000000000000000000000000000000000000000000000000000815260040180806020018281038252601f8152602001807f4f6e6c7920636f7079726967687420686f6c6465722063616e2065646974210081525060200191505060405180910390fd5b6000845111612c2f576040517f08c379a00000000000000000000000000000000000000000000000000000000081526004018080602001828103825260158152602001807f4e616d652063616e6e6f7420626520656d70747921000000000000000000000081525060200191505060405180910390fd5b60008311612ca5576040517f08c379a00000000000000000000000000000000000000000000000000000000081526004018080602001828103825260148152602001807f5072696365206d757374206265206e6f7420302100000000000000000000000081525060200191505060405180910390fd5b81600280811115612cb257fe5b1015612d26576040517f08c379a000000000000000000000000000000000000000000000000000000000815260040180806020018281038252600e8152602001807f496e76616c69642073746174757300000000000000000000000000000000000081525060200191505060405180910390fd5b612d2e6146f0565b600760008781526020019081526020016000206040518061012001604052908160008201548152602001600182018054600181600116156101000203166002900480601f016020809104026020016040519081016040528092919081815260200182805460018160011615610100020316600290048015612df05780601f10612dc557610100808354040283529160200191612df0565b820191906000526020600020905b815481529060010190602001808311612dd357829003601f168201915b50505050508152602001600282018054600181600116156101000203166002900480601f016020809104026020016040519081016040528092919081815260200182805460018160011615610100020316600290048015612e925780601f10612e6757610100808354040283529160200191612e92565b820191906000526020600020905b815481529060010190602001808311612e7557829003601f168201915b50505050508152602001600382018054600181600116156101000203166002900480601f016020809104026020016040519081016040528092919081815260200182805460018160011615610100020316600290048015612f345780601f10612f0957610100808354040283529160200191612f34565b820191906000526020600020905b815481529060010190602001808311612f1757829003601f168201915b50505050508152602001600482018054600181600116156101000203166002900480601f016020809104026020016040519081016040528092919081815260200182805460018160011615610100020316600290048015612fd65780601f10612fab57610100808354040283529160200191612fd6565b820191906000526020600020905b815481529060010190602001808311612fb957829003601f168201915b50505050508152602001600582015481526020016006820160009054906101000a900460ff161515151581526020016006820160019054906101000a900460ff16600281111561302257fe5b600281111561302d57fe5b81526020016006820160029054906101000a900473ffffffffffffffffffffffffffffffffffffffff1673ffffffffffffffffffffffffffffffffffffffff1673ffffffffffffffffffffffffffffffffffffffff16815250509050848160200181905250838160a00181815250508260028111156130a857fe5b8160e0019060028111156130b857fe5b908160028111156130c557fe5b8152505080600760008881526020019081526020016000206000820151816000015560208201518160010190805190602001906131039291906147be565b5060408201518160020190805190602001906131209291906147be565b50606082015181600301908051906020019061313d9291906147be565b50608082015181600401908051906020019061315a9291906147be565b5060a0820151816005015560c08201518160060160006101000a81548160ff02191690831515021790555060e08201518160060160016101000a81548160ff021916908360028111156131a957fe5b02179055506101008201518160060160026101000a81548173ffffffffffffffffffffffffffffffffffffffff021916908373ffffffffffffffffffffffffffffffffffffffff1602179055509050507f3a80a082d33d39eecb42fd18e48639de4c7aa5dbf15f40a2d3f16448985a00658686868460e00151604051808581526020018060200184815260200183600281111561324257fe5b60ff168152602001828103825285818151815260200191508051906020019080838360005b83811015613282578082015181840152602081019050613267565b50505050905090810190601f1680156132af5780820380516001836020036101000a031916815260200191505b509550505050505060405180910390a1505050505050565b6060600860003373ffffffffffffffffffffffffffffffffffffffff1673ffffffffffffffffffffffffffffffffffffffff16815260200190815260200160002080548060200260200160405190810160405280929190818152602001828054801561335257602002820191906000526020600020905b81548152602001906001019080831161333e575b5050505050905090565b600e6020528060005260406000206000915090508060000154908060010160009054906101000a900473ffffffffffffffffffffffffffffffffffffffff1690806002018054600181600116156101000203166002900480601f0160208091040260200160405190810160405280929190818152602001828054600181600116156101000203166002900480156134345780601f1061340957610100808354040283529160200191613434565b820191906000526020600020905b81548152906001019060200180831161341757829003601f168201915b5050505050908060030154908060040154905085565b60008451116134c1576040517f08c379a00000000000000000000000000000000000000000000000000000000081526004018080602001828103825260158152602001807f496e76616c69642049504653206164647265737321000000000000000000000081525060200191505060405180910390fd5b6000865111613538576040517f08c379a00000000000000000000000000000000000000000000000000000000081526004018080602001828103825260158152602001807f4e616d652063616e6e6f7420626520656d70747921000000000000000000000081525060200191505060405180910390fd5b600085116135ae576040517f08c379a00000000000000000000000000000000000000000000000000000000081526004018080602001828103825260148152602001807f5072696365206d757374206265206e6f7420302100000000000000000000000081525060200191505060405180910390fd5b600b846040518082805190602001908083835b602083106135e457805182526020820191506020810190506020830392506135c1565b6001836020036101000a038019825116818451168082178552505050505050905001915050908152602001604051809103902060009054906101000a900460ff1615613698576040517f08c379a00000000000000000000000000000000000000000000000000000000081526004018080602001828103825260148152602001807f496d61676520616c72656164792065786973742100000000000000000000000081525060200191505060405180910390fd5b806002808111156136a557fe5b1015613719576040517f08c379a000000000000000000000000000000000000000000000000000000000815260040180806020018281038252600e8152602001807f496e76616c69642073746174757300000000000000000000000000000000000081525060200191505060405180910390fd5b6005600081548092919060010191905055506001600b856040518082805190602001908083835b602083106137635780518252602082019150602081019050602083039250613740565b6001836020036101000a038019825116818451168082178552505050505050905001915050908152602001604051809103902060006101000a81548160ff02191690831515021790555060405180610120016040528060055481526020018781526020018581526020018481526020018381526020018681526020016000151581526020018260028111156137f457fe5b60028111156137ff57fe5b81526020013373ffffffffffffffffffffffffffffffffffffffff168152506007600060055481526020019081526020016000206000820151816000015560208201518160010190805190602001906138599291906147be565b5060408201518160020190805190602001906138769291906147be565b5060608201518160030190805190602001906138939291906147be565b5060808201518160040190805190602001906138b09291906147be565b5060a0820151816005015560c08201518160060160006101000a81548160ff02191690831515021790555060e08201518160060160016101000a81548160ff021916908360028111156138ff57fe5b02179055506101008201518160060160026101000a81548173ffffffffffffffffffffffffffffffffffffffff021916908373ffffffffffffffffffffffffffffffffffffffff160217905550905050600860003373ffffffffffffffffffffffffffffffffffffffff1673ffffffffffffffffffffffffffffffffffffffff16815260200190815260200160002060055490806001815401808255809150509060018203906000526020600020016000909192909190915055507f04277df24c93ab54a29e7d6a8854bba4efb526f9779087c4ab2543bdc6b8c9f4600554878686868a60008860028111156139f157fe5b33604051808a81526020018060200180602001806020018060200189815260200188151515158152602001876002811115613a2857fe5b60ff1681526020018673ffffffffffffffffffffffffffffffffffffffff1673ffffffffffffffffffffffffffffffffffffffff16815260200185810385528d818151815260200191508051906020019080838360005b83811015613a9a578082015181840152602081019050613a7f565b50505050905090810190601f168015613ac75780820380516001836020036101000a031916815260200191505b5085810384528c818151815260200191508051906020019080838360005b83811015613b00578082015181840152602081019050613ae5565b50505050905090810190601f168015613b2d5780820380516001836020036101000a031916815260200191505b5085810383528b818151815260200191508051906020019080838360005b83811015613b66578082015181840152602081019050613b4b565b50505050905090810190601f168015613b935780820380516001836020036101000a031916815260200191505b5085810382528a818151815260200191508051906020019080838360005b83811015613bcc578082015181840152602081019050613bb1565b50505050905090810190601f168015613bf95780820380516001836020036101000a031916815260200191505b509d505050505050505050505050505060405180910390a1505050505050565b60065481565b6000809054906101000a900473ffffffffffffffffffffffffffffffffffffffff1681565b600160009054906101000a900473ffffffffffffffffffffffffffffffffffffffff1673ffffffffffffffffffffffffffffffffffffffff1663a9059cbb83836040518363ffffffff1660e01b8152600401808373ffffffffffffffffffffffffffffffffffffffff1673ffffffffffffffffffffffffffffffffffffffff16815260200182815260200192505050602060405180830381600087803b158015613ced57600080fd5b505af1158015613d01573d6000803e3d6000fd5b505050506040513d6020811015613d1757600080fd5b8101908080519060200190929190505050613d9a576040517f08c379a00000000000000000000000000000000000000000000000000000000081526004018080602001828103825260108152602001807f4661696c20746f207472616e736665720000000000000000000000000000000081525060200191505060405180910390fd5b806003600082825401925050819055507f5e5e995ce3133561afceaa51a9a154d5db228cd7525d34df5185582c18d3df098282604051808373ffffffffffffffffffffffffffffffffffffffff1673ffffffffffffffffffffffffffffffffffffffff1681526020018281526020019250505060405180910390a15050565b600080831415613e2c5760009050613e99565b6000828402905082848281613e3d57fe5b0414613e94576040517f08c379a00000000000000000000000000000000000000000000000000000000081526004018080602001828103825260218152602001806148dd6021913960400191505060405180910390fd5b809150505b92915050565b600083118015613eb157506005548311155b613f23576040517f08c379a00000000000000000000000000000000000000000000000000000000081526004018080602001828103825260118152602001807f496e76616c696420696d6167652049442100000000000000000000000000000081525060200191505060405180910390fd5b613f2b6146f0565b600760008581526020019081526020016000206040518061012001604052908160008201548152602001600182018054600181600116156101000203166002900480601f016020809104026020016040519081016040528092919081815260200182805460018160011615610100020316600290048015613fed5780601f10613fc257610100808354040283529160200191613fed565b820191906000526020600020905b815481529060010190602001808311613fd057829003601f168201915b50505050508152602001600282018054600181600116156101000203166002900480601f01602080910402602001604051908101604052809291908181526020018280546001816001161561010002031660029004801561408f5780601f106140645761010080835404028352916020019161408f565b820191906000526020600020905b81548152906001019060200180831161407257829003601f168201915b50505050508152602001600382018054600181600116156101000203166002900480601f0160208091040260200160405190810160405280929190818152602001828054600181600116156101000203166002900480156141315780601f1061410657610100808354040283529160200191614131565b820191906000526020600020905b81548152906001019060200180831161411457829003601f168201915b50505050508152602001600482018054600181600116156101000203166002900480601f0160208091040260200160405190810160405280929190818152602001828054600181600116156101000203166002900480156141d35780601f106141a8576101008083540402835291602001916141d3565b820191906000526020600020905b8154815290600101906020018083116141b657829003601f168201915b50505050508152602001600582015481526020016006820160009054906101000a900460ff161515151581526020016006820160019054906101000a900460ff16600281111561421f57fe5b600281111561422a57fe5b81526020016006820160029054906101000a900473ffffffffffffffffffffffffffffffffffffffff1673ffffffffffffffffffffffffffffffffffffffff1673ffffffffffffffffffffffffffffffffffffffff16815250509050600081610100015190508160a001518314614309576040517f08c379a00000000000000000000000000000000000000000000000000000000081526004018080602001828103825260178152602001807f54686520707269636520646f65736e2774206d6174636800000000000000000081525060200191505060405180910390fd5b8373ffffffffffffffffffffffffffffffffffffffff168173ffffffffffffffffffffffffffffffffffffffff16141561438e576040517f08c379a00000000000000000000000000000000000000000000000000000000081526004018080602001828103825260328152602001806148646032913960400191505060405180910390fd5b6001600281111561439b57fe5b8260e0015160028111156143ab57fe5b14614401576040517f08c379a00000000000000000000000000000000000000000000000000000000081526004018080602001828103825260228152602001806148fe6022913960400191505060405180910390fd5b600a60008573ffffffffffffffffffffffffffffffffffffffff1673ffffffffffffffffffffffffffffffffffffffff168152602001908152602001600020600086815260200190815260200160002060009054906101000a900460ff16156144b5576040517f08c379a00000000000000000000000000000000000000000000000000000000081526004018080602001828103825260238152602001806148ba6023913960400191505060405180910390fd5b6001600a60008673ffffffffffffffffffffffffffffffffffffffff1673ffffffffffffffffffffffffffffffffffffffff168152602001908152602001600020600087815260200190815260200160002060006101000a81548160ff021916908315150217905550600960008573ffffffffffffffffffffffffffffffffffffffff1673ffffffffffffffffffffffffffffffffffffffff1681526020019081526020016000208590806001815401808255809150509060018203906000526020600020016000909192909190915055507fb378acf5af97990c8d7358e5d586c8afa237ab66111dcbc96d3f60da98dcc2968260000151836020015184604001518560a001518661010001516040518086815260200180602001806020018581526020018473ffffffffffffffffffffffffffffffffffffffff1673ffffffffffffffffffffffffffffffffffffffff168152602001838103835287818151815260200191508051906020019080838360005b83811015614644578082015181840152602081019050614629565b50505050905090810190601f1680156146715780820380516001836020036101000a031916815260200191505b50838103825286818151815260200191508051906020019080838360005b838110156146aa57808201518184015260208101905061468f565b50505050905090810190601f1680156146d75780820380516001836020036101000a031916815260200191505b5097505050505050505060405180910390a15050505050565b6040518061012001604052806000815260200160608152602001606081526020016060815260200160608152602001600081526020016000151581526020016000600281111561473c57fe5b8152602001600073ffffffffffffffffffffffffffffffffffffffff1681525090565b6040518060a0016040528060008152602001600073ffffffffffffffffffffffffffffffffffffffff1681526020016060815260200160008152602001600081525090565b604051806040016040528060008152602001600081525090565b828054600181600116156101000203166002900490600052602060002090601f016020900481019282601f106147ff57805160ff191683800117855561482d565b8280016001018555821561482d579182015b8281111561482c578251825591602001919060010190614811565b5b50905061483a919061483e565b5090565b61486091905b8082111561485c576000816000905550600101614844565b5090565b9056fe50686f746f6772617068657220646f65736e2774206e65656420746f20627579206869732f686572206f776e20696d6167654f6e6c79207075626c697368656420696d6167652063616e206265207265766965776564596f75206861766520616c726561647920626f75676874207468697320696d61676521536166654d6174683a206d756c7469706c69636174696f6e206f766572666c6f774f6e6c79207075626c697368656420696d6167652063616e20626520626f75676874a265627a7a72315820e05978d9494998cca4fc714786272c40fb7c26974c886cdb9eb1e6847435e3b064736f6c63430005100032",
  "source": "pragma solidity >=0.5.16 <0.7.0;\n\nimport \"./PhotoBlockToken.sol\";\nimport \"./TokenSale.sol\";\n\ncontract ImageMarketPlace is TokenRecipient, TokenSale {\n    string public name;\n    uint public imageCount = 0;\n    uint public reviewCount = 0;\n    \n    mapping(uint => Image) public images;\n    mapping(address => uint[]) private imageUploaded;\n    mapping(address => uint[]) private imageBought;\n    mapping(address => mapping(uint => bool)) public imagesPaid;\n    mapping(string => bool) private imageExist;\n    mapping(uint => ImageStat) public stats;\n    mapping(uint => uint[]) private imageReviews;\n    mapping(uint => Review) public reviews;\n    mapping(address => mapping(uint => bool)) public haveReviewed;\n    mapping(address => mapping(uint => bool)) private hasPaid;\n\n    constructor(PhotoBlockToken _tokenContract, uint256 _tokenPrice) TokenSale(_tokenContract, _tokenPrice) public {\n        name = \"PhotoStock\";\n    }\n\n    enum Status {Draft, Publish, Archieve}\n\n    struct Review{\n        uint id;\n        address payable by;\n        string content;\n        uint rate;\n        uint datePost;\n    }\n\n    struct ImageStat{\n        uint totalRate;\n        uint total;\n    }\n\n    struct Image {\n        uint id;\n        string name;\n        string ipfsHash;\n        string ext;\n        string mime;\n        uint price;\n        bool purchased;\n        Status status;\n        address payable owner;\n    }\n\n    event ImageCreated(\n        uint id,\n        string name,\n        string ipfsHash,\n        string ext,\n        string mime,\n        uint price,\n        bool purchased,\n        Status status,\n        address payable owner\n    );\n\n    event ImageEdited(\n        uint id,\n        string name,\n        uint price,\n        Status status\n    );\n\n    event ImagePurchased(\n        uint id,\n        string name,\n        string ipfsHash,\n        uint price,\n        address payable owner\n    );\n\n    event ImageReviewed(\n        uint id,\n        uint imageId,\n        string content,\n        uint rating,\n        uint datePost,\n        address payable by\n    );\n\n    modifier onlyImageOwner(uint256 _id){\n        require(_id > 0 && _id <= imageCount, \"Invalid image ID!\");\n        require(images[_id].owner == msg.sender, \"Only copyright holder can edit!\");\n        _;\n    }\n\n    function imagesUploaded() public view returns(uint[] memory){\n        return imageUploaded[msg.sender];\n    }\n\n    function imagesBought() public view returns(uint[] memory){\n        return imageBought[msg.sender];\n    }\n\n    function imagesReviews(uint imageId) public view returns(uint[] memory){\n        return imageReviews[imageId];\n    }\n\n    function createImage(string memory _name, uint _price, string memory _ipfsHash, \n                         string memory _fileExt, string memory _fileMime, uint _status) public {\n        require(bytes(_ipfsHash).length > 0, \"Invalid IPFS address!\");\n        require(bytes(_name).length > 0, \"Name cannot be empty!\");\n        require(_price > 0, \"Price must be not 0!\");\n        require(!imageExist[_ipfsHash], \"Image already exist!\");\n        require(uint(Status.Archieve) >= _status, \"Invalid status\");\n        imageCount ++;\n        imageExist[_ipfsHash] = true;\n        images[imageCount] = Image(imageCount, _name, _ipfsHash, _fileExt, _fileMime, _price, false, Status(_status), msg.sender);\n        imageUploaded[msg.sender].push(imageCount);\n        emit ImageCreated(imageCount, _name, _ipfsHash, _fileExt, _fileMime, _price, false, Status(_status), msg.sender);\n    }\n\n    function purchaseImage(uint _id) public payable {\n        _purchaseImageFor(_id, msg.sender, msg.value);\n    }\n\n    function _purchaseImageFor(uint _id, address _buyer, uint256 _value) private {\n        require(_id > 0 && _id <= imageCount, \"Invalid image ID!\");\n        Image memory _img = images[_id];\n\n        address payable _seller = _img.owner;\n        require(_value == _img.price, \"The price doesn't match\");\n        require(_seller != _buyer, \"Photographer doesn't need to buy his/her own image\");\n        require(_img.status == Status.Publish, \"Only published image can be bought\");\n        require(!imagesPaid[_buyer][_id], \"You have already bought this image!\");\n        imagesPaid[_buyer][_id] = true;\n        imageBought[_buyer].push(_id);\n        emit ImagePurchased(_img.id, _img.name, _img.ipfsHash, _img.price, _img.owner);\n    }\n\n    function tokenFallback(address _from, uint256 _value, bytes memory _extraData) public returns(bool success){\n        uint256 payloadSize;\n        uint256 payload;\n        assembly {\n            payloadSize := mload(_extraData)\n            payload := mload(add(_extraData, 0x20))\n        }\n        payload = payload >> 8*(32 - payloadSize);\n        _purchaseImageFor(payload, _from, _value);\n        return true;\n    }\n\n    function editImageDescr(uint _id, string memory _newName, uint _newPrice, uint _newStatus) public onlyImageOwner(_id){\n        require(bytes(_newName).length > 0, \"Name cannot be empty!\");\n        require(_newPrice > 0, \"Price must be not 0!\");\n        require(uint(Status.Archieve) >= _newStatus, \"Invalid status\");\n        Image memory img = images[_id];\n        img.name = _newName;\n        img.price = _newPrice;\n        img.status = Status(_newStatus);\n        images[_id] = img;\n        emit ImageEdited(_id, _newName, _newPrice, img.status);\n    }\n\n    function postRate(uint _imageId, string memory _content, uint _rateValue, uint _datePost) public {\n        require(_imageId > 0 && _imageId <= imageCount, \"Invalid image ID\");\n        require(msg.sender != address(0), \"Invalid address\");\n        require(_datePost > 0, \"Invalid Date\");\n        require(_rateValue > 0 && _rateValue <= 5, \"Invalid rate value\");\n        require(imagesPaid[msg.sender][_imageId], \"Sender hasn't bought the image\");\n        require(!haveReviewed[msg.sender][_imageId], \"Sender can only review once\");\n        Image memory _img = images[_imageId];\n        require(_img.owner != msg.sender, \"Owner can't review\");\n        require(_img.status == Status.Publish, \"Only published image can be reviewed\");\n        reviewCount++;\n        Review memory review = Review(reviewCount, msg.sender, _content, _rateValue, _datePost);\n        ImageStat memory imgStat = stats[_imageId];\n\n        imgStat.totalRate = imgStat.totalRate + _rateValue;\n        imgStat.total = imgStat.total + 1;\n        stats[_imageId] = imgStat;\n        imageReviews[_imageId].push(reviewCount);\n        reviews[reviewCount] = review;\n\n        // Send bonus if meet the criteria\n        if(!hasPaid[msg.sender][_imageId] && tokenContract.balanceOf(address(this)) >= 1){\n            // transfer 1 PBCoin\n            sendTokenTo(msg.sender, 1);\n            hasPaid[msg.sender][_imageId] = true;\n        }\n\n        if (imgStat.total >= 100 && (imgStat.totalRate/imgStat.total) > 4 \n            && !hasPaid[_img.owner][_imageId] && tokenContract.balanceOf(address(this)) >= 2){\n            // transfer 2 PBCoin\n            sendTokenTo(msg.sender, 2);\n            hasPaid[_img.owner][_imageId] = true;\n        }\n\n        emit ImageReviewed(reviewCount, _imageId, _content, _rateValue, _datePost, msg.sender);\n    }\n\n    function sendTokenTo(address _to, uint _value) private {\n        require(tokenContract.transfer(_to, _value), \"Fail to transfer\");\n        tokensSold += _value;\n        emit Sell(_to, _value);\n    }\n}",
  "sourcePath": "/Users/hadihs/Documents/photo/contracts/ImageMarketPlace.sol",
  "compiler": {
    "name": "solc",
    "version": "0.5.16+commit.9c3226ce.Emscripten.clang"
  },
  "schemaVersion": "3.0.23",
  "updatedAt": "2020-06-06T04:25:27.393Z",
  "networkType": "ethereum",
  "devdoc": {
    "methods": {}
  },
  "userdoc": {
    "methods": {}
  }
}