{
  "contractName": "ImageMarketPlace",
  "abi": [
    {
      "inputs": [],
      "payable": false,
      "stateMutability": "nonpayable",
      "type": "constructor"
    },
    {
      "anonymous": false,
      "inputs": [
        {
          "indexed": false,
          "internalType": "uint256",
          "name": "id",
          "type": "uint256"
        },
        {
          "indexed": false,
          "internalType": "string",
          "name": "name",
          "type": "string"
        },
        {
          "indexed": false,
          "internalType": "string",
          "name": "ipfsHash",
          "type": "string"
        },
        {
          "indexed": false,
          "internalType": "string",
          "name": "ext",
          "type": "string"
        },
        {
          "indexed": false,
          "internalType": "string",
          "name": "mime",
          "type": "string"
        },
        {
          "indexed": false,
          "internalType": "uint256",
          "name": "price",
          "type": "uint256"
        },
        {
          "indexed": false,
          "internalType": "bool",
          "name": "purchased",
          "type": "bool"
        },
        {
          "indexed": false,
          "internalType": "enum ImageMarketPlace.Status",
          "name": "status",
          "type": "uint8"
        },
        {
          "indexed": false,
          "internalType": "address payable",
          "name": "owner",
          "type": "address"
        }
      ],
      "name": "ImageCreated",
      "type": "event"
    },
    {
      "anonymous": false,
      "inputs": [
        {
          "indexed": false,
          "internalType": "uint256",
          "name": "id",
          "type": "uint256"
        },
        {
          "indexed": false,
          "internalType": "string",
          "name": "name",
          "type": "string"
        },
        {
          "indexed": false,
          "internalType": "uint256",
          "name": "price",
          "type": "uint256"
        },
        {
          "indexed": false,
          "internalType": "enum ImageMarketPlace.Status",
          "name": "status",
          "type": "uint8"
        }
      ],
      "name": "ImageEdited",
      "type": "event"
    },
    {
      "anonymous": false,
      "inputs": [
        {
          "indexed": false,
          "internalType": "uint256",
          "name": "id",
          "type": "uint256"
        },
        {
          "indexed": false,
          "internalType": "string",
          "name": "name",
          "type": "string"
        },
        {
          "indexed": false,
          "internalType": "string",
          "name": "ipfsHash",
          "type": "string"
        },
        {
          "indexed": false,
          "internalType": "uint256",
          "name": "price",
          "type": "uint256"
        },
        {
          "indexed": false,
          "internalType": "address payable",
          "name": "owner",
          "type": "address"
        }
      ],
      "name": "ImagePurchased",
      "type": "event"
    },
    {
      "anonymous": false,
      "inputs": [
        {
          "indexed": false,
          "internalType": "uint256",
          "name": "id",
          "type": "uint256"
        },
        {
          "indexed": false,
          "internalType": "string",
          "name": "content",
          "type": "string"
        },
        {
          "indexed": false,
          "internalType": "uint256",
          "name": "rating",
          "type": "uint256"
        },
        {
          "indexed": false,
          "internalType": "address payable",
          "name": "by",
          "type": "address"
        }
      ],
      "name": "ImageReviewed",
      "type": "event"
    },
    {
      "constant": true,
      "inputs": [],
      "name": "imageCount",
      "outputs": [
        {
          "internalType": "uint256",
          "name": "",
          "type": "uint256"
        }
      ],
      "payable": false,
      "stateMutability": "view",
      "type": "function"
    },
    {
      "constant": true,
      "inputs": [
        {
          "internalType": "uint256",
          "name": "",
          "type": "uint256"
        }
      ],
      "name": "images",
      "outputs": [
        {
          "internalType": "uint256",
          "name": "id",
          "type": "uint256"
        },
        {
          "internalType": "string",
          "name": "name",
          "type": "string"
        },
        {
          "internalType": "string",
          "name": "ipfsHash",
          "type": "string"
        },
        {
          "internalType": "string",
          "name": "ext",
          "type": "string"
        },
        {
          "internalType": "string",
          "name": "mime",
          "type": "string"
        },
        {
          "internalType": "uint256",
          "name": "price",
          "type": "uint256"
        },
        {
          "internalType": "bool",
          "name": "purchased",
          "type": "bool"
        },
        {
          "internalType": "enum ImageMarketPlace.Status",
          "name": "status",
          "type": "uint8"
        },
        {
          "internalType": "address payable",
          "name": "owner",
          "type": "address"
        }
      ],
      "payable": false,
      "stateMutability": "view",
      "type": "function"
    },
    {
      "constant": true,
      "inputs": [
        {
          "internalType": "address",
          "name": "",
          "type": "address"
        },
        {
          "internalType": "uint256",
          "name": "",
          "type": "uint256"
        }
      ],
      "name": "imagesPaid",
      "outputs": [
        {
          "internalType": "bool",
          "name": "",
          "type": "bool"
        }
      ],
      "payable": false,
      "stateMutability": "view",
      "type": "function"
    },
    {
      "constant": true,
      "inputs": [],
      "name": "name",
      "outputs": [
        {
          "internalType": "string",
          "name": "",
          "type": "string"
        }
      ],
      "payable": false,
      "stateMutability": "view",
      "type": "function"
    },
    {
      "constant": true,
      "inputs": [
        {
          "internalType": "uint256",
          "name": "",
          "type": "uint256"
        },
        {
          "internalType": "uint256",
          "name": "",
          "type": "uint256"
        }
      ],
      "name": "reviews",
      "outputs": [
        {
          "internalType": "address payable",
          "name": "by",
          "type": "address"
        },
        {
          "internalType": "string",
          "name": "content",
          "type": "string"
        },
        {
          "internalType": "uint256",
          "name": "rate",
          "type": "uint256"
        }
      ],
      "payable": false,
      "stateMutability": "view",
      "type": "function"
    },
    {
      "constant": true,
      "inputs": [
        {
          "internalType": "uint256",
          "name": "",
          "type": "uint256"
        }
      ],
      "name": "stats",
      "outputs": [
        {
          "internalType": "uint256",
          "name": "totalRate",
          "type": "uint256"
        },
        {
          "internalType": "uint256",
          "name": "total",
          "type": "uint256"
        }
      ],
      "payable": false,
      "stateMutability": "view",
      "type": "function"
    },
    {
      "constant": true,
      "inputs": [],
      "name": "imagesUploaded",
      "outputs": [
        {
          "internalType": "uint256[]",
          "name": "",
          "type": "uint256[]"
        }
      ],
      "payable": false,
      "stateMutability": "view",
      "type": "function"
    },
    {
      "constant": true,
      "inputs": [],
      "name": "imagesBought",
      "outputs": [
        {
          "internalType": "uint256[]",
          "name": "",
          "type": "uint256[]"
        }
      ],
      "payable": false,
      "stateMutability": "view",
      "type": "function"
    },
    {
      "constant": false,
      "inputs": [
        {
          "internalType": "string",
          "name": "_name",
          "type": "string"
        },
        {
          "internalType": "uint256",
          "name": "_price",
          "type": "uint256"
        },
        {
          "internalType": "string",
          "name": "_ipfsHash",
          "type": "string"
        },
        {
          "internalType": "string",
          "name": "_fileExt",
          "type": "string"
        },
        {
          "internalType": "string",
          "name": "_fileMime",
          "type": "string"
        },
        {
          "internalType": "uint256",
          "name": "_status",
          "type": "uint256"
        }
      ],
      "name": "createImage",
      "outputs": [],
      "payable": false,
      "stateMutability": "nonpayable",
      "type": "function"
    },
    {
      "constant": false,
      "inputs": [
        {
          "internalType": "uint256",
          "name": "_id",
          "type": "uint256"
        }
      ],
      "name": "purchaseImage",
      "outputs": [],
      "payable": true,
      "stateMutability": "payable",
      "type": "function"
    },
    {
      "constant": false,
      "inputs": [
        {
          "internalType": "address",
          "name": "_from",
          "type": "address"
        },
        {
          "internalType": "uint256",
          "name": "_value",
          "type": "uint256"
        },
        {
          "internalType": "bytes",
          "name": "_extraData",
          "type": "bytes"
        }
      ],
      "name": "tokenFallback",
      "outputs": [
        {
          "internalType": "bool",
          "name": "success",
          "type": "bool"
        }
      ],
      "payable": false,
      "stateMutability": "nonpayable",
      "type": "function"
    },
    {
      "constant": false,
      "inputs": [
        {
          "internalType": "uint256",
          "name": "_id",
          "type": "uint256"
        },
        {
          "internalType": "string",
          "name": "_newName",
          "type": "string"
        },
        {
          "internalType": "uint256",
          "name": "_newPrice",
          "type": "uint256"
        },
        {
          "internalType": "uint256",
          "name": "_newStatus",
          "type": "uint256"
        }
      ],
      "name": "editImageDescr",
      "outputs": [],
      "payable": false,
      "stateMutability": "nonpayable",
      "type": "function"
    },
    {
      "constant": false,
      "inputs": [
        {
          "internalType": "uint256",
          "name": "_imageId",
          "type": "uint256"
        },
        {
          "internalType": "string",
          "name": "_content",
          "type": "string"
        },
        {
          "internalType": "uint256",
          "name": "_rateValue",
          "type": "uint256"
        }
      ],
      "name": "postRate",
      "outputs": [],
      "payable": false,
      "stateMutability": "nonpayable",
      "type": "function"
    }
  ],
  "bytecode": "0x608060405260006001553480156200001657600080fd5b506040518060400160405280600a81526020017f50686f746f53746f636b0000000000000000000000000000000000000000000081525060009080519060200190620000649291906200006b565b506200011a565b828054600181600116156101000203166002900490600052602060002090601f016020900481019282601f10620000ae57805160ff1916838001178555620000df565b82800160010185558215620000df579182015b82811115620000de578251825591602001919060010190620000c1565b5b509050620000ee9190620000f2565b5090565b6200011791905b8082111562000113576000816000905550600101620000f9565b5090565b90565b6138e0806200012a6000396000f3fe6080604052600436106100c25760003560e01c806392053b631161007f578063c0ee0b8a11610059578063c0ee0b8a14610712578063d1947c1b1461081c578063e65f629614610902578063edb8bc651461096e576100c2565b806392053b6314610599578063a7264f88146105c4578063ad217ae5146106bc576100c2565b806305874481146100c757806306fdde031461013a578063459965b6146101ca5780635e06bfbe146101f8578063735dbb2d146102645780638485648214610340575b600080fd5b3480156100d357600080fd5b50610120600480360360408110156100ea57600080fd5b81019080803573ffffffffffffffffffffffffffffffffffffffff16906020019092919080359060200190929190505050610c0f565b604051808215151515815260200191505060405180910390f35b34801561014657600080fd5b5061014f610c3e565b6040518080602001828103825283818151815260200191508051906020019080838360005b8381101561018f578082015181840152602081019050610174565b50505050905090810190601f1680156101bc5780820380516001836020036101000a031916815260200191505b509250505060405180910390f35b6101f6600480360360208110156101e057600080fd5b8101908080359060200190929190505050610cdc565b005b34801561020457600080fd5b5061020d610cea565b6040518080602001828103825283818151815260200191508051906020019060200280838360005b83811015610250578082015181840152602081019050610235565b505050509050019250505060405180910390f35b34801561027057600080fd5b5061033e6004803603606081101561028757600080fd5b8101908080359060200190929190803590602001906401000000008111156102ae57600080fd5b8201836020820111156102c057600080fd5b803590602001918460018302840111640100000000831117156102e257600080fd5b91908080601f016020809104026020016040519081016040528093929190818152602001838380828437600081840152601f19601f82011690508083019250505050505050919291929080359060200190929190505050610d7f565b005b34801561034c57600080fd5b506103796004803603602081101561036357600080fd5b8101908080359060200190929190505050611949565b604051808a815260200180602001806020018060200180602001898152602001881515151581526020018760028111156103af57fe5b60ff1681526020018673ffffffffffffffffffffffffffffffffffffffff1673ffffffffffffffffffffffffffffffffffffffff16815260200185810385528d818151815260200191508051906020019080838360005b83811015610421578082015181840152602081019050610406565b50505050905090810190601f16801561044e5780820380516001836020036101000a031916815260200191505b5085810384528c818151815260200191508051906020019080838360005b8381101561048757808201518184015260208101905061046c565b50505050905090810190601f1680156104b45780820380516001836020036101000a031916815260200191505b5085810383528b818151815260200191508051906020019080838360005b838110156104ed5780820151818401526020810190506104d2565b50505050905090810190601f16801561051a5780820380516001836020036101000a031916815260200191505b5085810382528a818151815260200191508051906020019080838360005b83811015610553578082015181840152602081019050610538565b50505050905090810190601f1680156105805780820380516001836020036101000a031916815260200191505b509d505050505050505050505050505060405180910390f35b3480156105a557600080fd5b506105ae611c31565b6040518082815260200191505060405180910390f35b3480156105d057600080fd5b50610607600480360360408110156105e757600080fd5b810190808035906020019092919080359060200190929190505050611c37565b604051808473ffffffffffffffffffffffffffffffffffffffff1673ffffffffffffffffffffffffffffffffffffffff16815260200180602001838152602001828103825284818151815260200191508051906020019080838360005b8381101561067f578082015181840152602081019050610664565b50505050905090810190601f1680156106ac5780820380516001836020036101000a031916815260200191505b5094505050505060405180910390f35b3480156106c857600080fd5b506106f5600480360360208110156106df57600080fd5b8101908080359060200190929190505050611d33565b604051808381526020018281526020019250505060405180910390f35b34801561071e57600080fd5b506108026004803603606081101561073557600080fd5b81019080803573ffffffffffffffffffffffffffffffffffffffff169060200190929190803590602001909291908035906020019064010000000081111561077c57600080fd5b82018360208201111561078e57600080fd5b803590602001918460018302840111640100000000831117156107b057600080fd5b91908080601f016020809104026020016040519081016040528093929190818152602001838380828437600081840152601f19601f820116905080830192505050505050509192919290505050611d57565b604051808215151515815260200191505060405180910390f35b34801561082857600080fd5b506109006004803603608081101561083f57600080fd5b81019080803590602001909291908035906020019064010000000081111561086657600080fd5b82018360208201111561087857600080fd5b8035906020019184600183028401116401000000008311171561089a57600080fd5b91908080601f016020809104026020016040519081016040528093929190818152602001838380828437600081840152601f19601f8201169050808301925050505050505091929192908035906020019092919080359060200190929190505050611d8b565b005b34801561090e57600080fd5b506109176125f6565b6040518080602001828103825283818151815260200191508051906020019060200280838360005b8381101561095a57808201518184015260208101905061093f565b505050509050019250505060405180910390f35b34801561097a57600080fd5b50610c0d600480360360c081101561099157600080fd5b81019080803590602001906401000000008111156109ae57600080fd5b8201836020820111156109c057600080fd5b803590602001918460018302840111640100000000831117156109e257600080fd5b91908080601f016020809104026020016040519081016040528093929190818152602001838380828437600081840152601f19601f8201169050808301925050505050505091929192908035906020019092919080359060200190640100000000811115610a4f57600080fd5b820183602082011115610a6157600080fd5b80359060200191846001830284011164010000000083111715610a8357600080fd5b91908080601f016020809104026020016040519081016040528093929190818152602001838380828437600081840152601f19601f82011690508083019250505050505050919291929080359060200190640100000000811115610ae657600080fd5b820183602082011115610af857600080fd5b80359060200191846001830284011164010000000083111715610b1a57600080fd5b91908080601f016020809104026020016040519081016040528093929190818152602001838380828437600081840152601f19601f82011690508083019250505050505050919291929080359060200190640100000000811115610b7d57600080fd5b820183602082011115610b8f57600080fd5b80359060200191846001830284011164010000000083111715610bb157600080fd5b91908080601f016020809104026020016040519081016040528093929190818152602001838380828437600081840152601f19601f8201169050808301925050505050505091929192908035906020019092919050505061268b565b005b60056020528160005260406000206020528060005260406000206000915091509054906101000a900460ff1681565b60008054600181600116156101000203166002900480601f016020809104026020016040519081016040528092919081815260200182805460018160011615610100020316600290048015610cd45780601f10610ca957610100808354040283529160200191610cd4565b820191906000526020600020905b815481529060010190602001808311610cb757829003601f168201915b505050505081565b610ce7813334612e5a565b50565b6060600460003373ffffffffffffffffffffffffffffffffffffffff1673ffffffffffffffffffffffffffffffffffffffff168152602001908152602001600020805480602002602001604051908101604052809291908181526020018280548015610d7557602002820191906000526020600020905b815481526020019060010190808311610d61575b5050505050905090565b600083118015610d9157506001548311155b610e03576040517f08c379a00000000000000000000000000000000000000000000000000000000081526004018080602001828103825260108152602001807f496e76616c696420696d6167652049440000000000000000000000000000000081525060200191505060405180910390fd5b600073ffffffffffffffffffffffffffffffffffffffff163373ffffffffffffffffffffffffffffffffffffffff161415610ea6576040517f08c379a000000000000000000000000000000000000000000000000000000000815260040180806020018281038252600f8152602001807f496e76616c69642061646472657373000000000000000000000000000000000081525060200191505060405180910390fd5b600081118015610eb7575060058111155b610f29576040517f08c379a00000000000000000000000000000000000000000000000000000000081526004018080602001828103825260128152602001807f496e76616c696420726174652076616c7565000000000000000000000000000081525060200191505060405180910390fd5b600560003373ffffffffffffffffffffffffffffffffffffffff1673ffffffffffffffffffffffffffffffffffffffff168152602001908152602001600020600084815260200190815260200160002060009054906101000a900460ff16610ff9576040517f08c379a000000000000000000000000000000000000000000000000000000000815260040180806020018281038252601e8152602001807f53656e646572206861736e277420626f756768742074686520696d616765000081525060200191505060405180910390fd5b600960003373ffffffffffffffffffffffffffffffffffffffff1673ffffffffffffffffffffffffffffffffffffffff168152602001908152602001600020600084815260200190815260200160002060009054906101000a900460ff16156110ca576040517f08c379a000000000000000000000000000000000000000000000000000000000815260040180806020018281038252601b8152602001807f53656e6465722063616e206f6e6c7920726576696577206f6e6365000000000081525060200191505060405180910390fd5b6110d26136ab565b600260008581526020019081526020016000206040518061012001604052908160008201548152602001600182018054600181600116156101000203166002900480601f0160208091040260200160405190810160405280929190818152602001828054600181600116156101000203166002900480156111945780601f1061116957610100808354040283529160200191611194565b820191906000526020600020905b81548152906001019060200180831161117757829003601f168201915b50505050508152602001600282018054600181600116156101000203166002900480601f0160208091040260200160405190810160405280929190818152602001828054600181600116156101000203166002900480156112365780601f1061120b57610100808354040283529160200191611236565b820191906000526020600020905b81548152906001019060200180831161121957829003601f168201915b50505050508152602001600382018054600181600116156101000203166002900480601f0160208091040260200160405190810160405280929190818152602001828054600181600116156101000203166002900480156112d85780601f106112ad576101008083540402835291602001916112d8565b820191906000526020600020905b8154815290600101906020018083116112bb57829003601f168201915b50505050508152602001600482018054600181600116156101000203166002900480601f01602080910402602001604051908101604052809291908181526020018280546001816001161561010002031660029004801561137a5780601f1061134f5761010080835404028352916020019161137a565b820191906000526020600020905b81548152906001019060200180831161135d57829003601f168201915b50505050508152602001600582015481526020016006820160009054906101000a900460ff161515151581526020016006820160019054906101000a900460ff1660028111156113c657fe5b60028111156113d157fe5b81526020016006820160029054906101000a900473ffffffffffffffffffffffffffffffffffffffff1673ffffffffffffffffffffffffffffffffffffffff1673ffffffffffffffffffffffffffffffffffffffff168152505090503373ffffffffffffffffffffffffffffffffffffffff1681610100015173ffffffffffffffffffffffffffffffffffffffff1614156114d4576040517f08c379a00000000000000000000000000000000000000000000000000000000081526004018080602001828103825260128152602001807f4f776e65722063616e277420726576696577000000000000000000000000000081525060200191505060405180910390fd5b600160028111156114e157fe5b8160e0015160028111156114f157fe5b14611547576040517f08c379a00000000000000000000000000000000000000000000000000000000081526004018080602001828103825260248152602001806138436024913960400191505060405180910390fd5b61154f61371a565b60405180606001604052803373ffffffffffffffffffffffffffffffffffffffff16815260200185815260200184815250905061158a613751565b6007600087815260200190815260200160002060405180604001604052908160008201548152602001600182015481525050905083816000015101816000018181525050600181602001510181602001818152505060086000878152602001908152602001600020829080600181540180825580915050906001820390600052602060002090600302016000909192909190915060008201518160000160006101000a81548173ffffffffffffffffffffffffffffffffffffffff021916908373ffffffffffffffffffffffffffffffffffffffff160217905550602082015181600101908051906020019061168192919061376b565b5060408201518160020155505050600a60003373ffffffffffffffffffffffffffffffffffffffff1673ffffffffffffffffffffffffffffffffffffffff168152602001908152602001600020600087815260200190815260200160002060009054906101000a900460ff1661175b576001600a60003373ffffffffffffffffffffffffffffffffffffffff1673ffffffffffffffffffffffffffffffffffffffff168152602001908152602001600020600088815260200190815260200160002060006101000a81548160ff0219169083151502179055505b606481602001511015801561178157506004816020015182600001518161177e57fe5b04115b80156117ed5750600a600084610100015173ffffffffffffffffffffffffffffffffffffffff1673ffffffffffffffffffffffffffffffffffffffff168152602001908152602001600020600087815260200190815260200160002060009054906101000a900460ff16155b15611861576001600a600085610100015173ffffffffffffffffffffffffffffffffffffffff1673ffffffffffffffffffffffffffffffffffffffff168152602001908152602001600020600088815260200190815260200160002060006101000a81548160ff0219169083151502179055505b7f2d64f9e7b28fd180790ded01cd05cc56ae081e8439d2d67c3551d8bb19ce6a7b8686863360405180858152602001806020018481526020018373ffffffffffffffffffffffffffffffffffffffff1673ffffffffffffffffffffffffffffffffffffffff168152602001828103825285818151815260200191508051906020019080838360005b838110156119045780820151818401526020810190506118e9565b50505050905090810190601f1680156119315780820380516001836020036101000a031916815260200191505b509550505050505060405180910390a1505050505050565b6002602052806000526040600020600091509050806000015490806001018054600181600116156101000203166002900480601f0160208091040260200160405190810160405280929190818152602001828054600181600116156101000203166002900480156119fb5780601f106119d0576101008083540402835291602001916119fb565b820191906000526020600020905b8154815290600101906020018083116119de57829003601f168201915b505050505090806002018054600181600116156101000203166002900480601f016020809104026020016040519081016040528092919081815260200182805460018160011615610100020316600290048015611a995780601f10611a6e57610100808354040283529160200191611a99565b820191906000526020600020905b815481529060010190602001808311611a7c57829003601f168201915b505050505090806003018054600181600116156101000203166002900480601f016020809104026020016040519081016040528092919081815260200182805460018160011615610100020316600290048015611b375780601f10611b0c57610100808354040283529160200191611b37565b820191906000526020600020905b815481529060010190602001808311611b1a57829003601f168201915b505050505090806004018054600181600116156101000203166002900480601f016020809104026020016040519081016040528092919081815260200182805460018160011615610100020316600290048015611bd55780601f10611baa57610100808354040283529160200191611bd5565b820191906000526020600020905b815481529060010190602001808311611bb857829003601f168201915b5050505050908060050154908060060160009054906101000a900460ff16908060060160019054906101000a900460ff16908060060160029054906101000a900473ffffffffffffffffffffffffffffffffffffffff16905089565b60015481565b60086020528160005260406000208181548110611c5057fe5b9060005260206000209060030201600091509150508060000160009054906101000a900473ffffffffffffffffffffffffffffffffffffffff1690806001018054600181600116156101000203166002900480601f016020809104026020016040519081016040528092919081815260200182805460018160011615610100020316600290048015611d235780601f10611cf857610100808354040283529160200191611d23565b820191906000526020600020905b815481529060010190602001808311611d0657829003601f168201915b5050505050908060020154905083565b60076020528060005260406000206000915090508060000154908060010154905082565b600080600083519150602084015190508160200360080281901c9050611d7e818787612e5a565b6001925050509392505050565b83600081118015611d9e57506001548111155b611e10576040517f08c379a00000000000000000000000000000000000000000000000000000000081526004018080602001828103825260118152602001807f496e76616c696420696d6167652049442100000000000000000000000000000081525060200191505060405180910390fd5b3373ffffffffffffffffffffffffffffffffffffffff166002600083815260200190815260200160002060060160029054906101000a900473ffffffffffffffffffffffffffffffffffffffff1673ffffffffffffffffffffffffffffffffffffffff1614611ee7576040517f08c379a000000000000000000000000000000000000000000000000000000000815260040180806020018281038252601f8152602001807f4f6e6c7920636f7079726967687420686f6c6465722063616e2065646974210081525060200191505060405180910390fd5b6000845111611f5e576040517f08c379a00000000000000000000000000000000000000000000000000000000081526004018080602001828103825260158152602001807f4e616d652063616e6e6f7420626520656d70747921000000000000000000000081525060200191505060405180910390fd5b60008311611fd4576040517f08c379a00000000000000000000000000000000000000000000000000000000081526004018080602001828103825260148152602001807f5072696365206d757374206265206e6f7420302100000000000000000000000081525060200191505060405180910390fd5b81600280811115611fe157fe5b1015612055576040517f08c379a000000000000000000000000000000000000000000000000000000000815260040180806020018281038252600e8152602001807f496e76616c69642073746174757300000000000000000000000000000000000081525060200191505060405180910390fd5b61205d6136ab565b600260008781526020019081526020016000206040518061012001604052908160008201548152602001600182018054600181600116156101000203166002900480601f01602080910402602001604051908101604052809291908181526020018280546001816001161561010002031660029004801561211f5780601f106120f45761010080835404028352916020019161211f565b820191906000526020600020905b81548152906001019060200180831161210257829003601f168201915b50505050508152602001600282018054600181600116156101000203166002900480601f0160208091040260200160405190810160405280929190818152602001828054600181600116156101000203166002900480156121c15780601f10612196576101008083540402835291602001916121c1565b820191906000526020600020905b8154815290600101906020018083116121a457829003601f168201915b50505050508152602001600382018054600181600116156101000203166002900480601f0160208091040260200160405190810160405280929190818152602001828054600181600116156101000203166002900480156122635780601f1061223857610100808354040283529160200191612263565b820191906000526020600020905b81548152906001019060200180831161224657829003601f168201915b50505050508152602001600482018054600181600116156101000203166002900480601f0160208091040260200160405190810160405280929190818152602001828054600181600116156101000203166002900480156123055780601f106122da57610100808354040283529160200191612305565b820191906000526020600020905b8154815290600101906020018083116122e857829003601f168201915b50505050508152602001600582015481526020016006820160009054906101000a900460ff161515151581526020016006820160019054906101000a900460ff16600281111561235157fe5b600281111561235c57fe5b81526020016006820160029054906101000a900473ffffffffffffffffffffffffffffffffffffffff1673ffffffffffffffffffffffffffffffffffffffff1673ffffffffffffffffffffffffffffffffffffffff16815250509050848160200181905250838160a00181815250508260028111156123d757fe5b8160e0019060028111156123e757fe5b908160028111156123f457fe5b81525050806002600088815260200190815260200160002060008201518160000155602082015181600101908051906020019061243292919061376b565b50604082015181600201908051906020019061244f92919061376b565b50606082015181600301908051906020019061246c92919061376b565b50608082015181600401908051906020019061248992919061376b565b5060a0820151816005015560c08201518160060160006101000a81548160ff02191690831515021790555060e08201518160060160016101000a81548160ff021916908360028111156124d857fe5b02179055506101008201518160060160026101000a81548173ffffffffffffffffffffffffffffffffffffffff021916908373ffffffffffffffffffffffffffffffffffffffff1602179055509050507f3a80a082d33d39eecb42fd18e48639de4c7aa5dbf15f40a2d3f16448985a00658686868460e00151604051808581526020018060200184815260200183600281111561257157fe5b60ff168152602001828103825285818151815260200191508051906020019080838360005b838110156125b1578082015181840152602081019050612596565b50505050905090810190601f1680156125de5780820380516001836020036101000a031916815260200191505b509550505050505060405180910390a1505050505050565b6060600360003373ffffffffffffffffffffffffffffffffffffffff1673ffffffffffffffffffffffffffffffffffffffff16815260200190815260200160002080548060200260200160405190810160405280929190818152602001828054801561268157602002820191906000526020600020905b81548152602001906001019080831161266d575b5050505050905090565b6000845111612702576040517f08c379a00000000000000000000000000000000000000000000000000000000081526004018080602001828103825260158152602001807f496e76616c69642049504653206164647265737321000000000000000000000081525060200191505060405180910390fd5b6000865111612779576040517f08c379a00000000000000000000000000000000000000000000000000000000081526004018080602001828103825260158152602001807f4e616d652063616e6e6f7420626520656d70747921000000000000000000000081525060200191505060405180910390fd5b600085116127ef576040517f08c379a00000000000000000000000000000000000000000000000000000000081526004018080602001828103825260148152602001807f5072696365206d757374206265206e6f7420302100000000000000000000000081525060200191505060405180910390fd5b6006846040518082805190602001908083835b602083106128255780518252602082019150602081019050602083039250612802565b6001836020036101000a038019825116818451168082178552505050505050905001915050908152602001604051809103902060009054906101000a900460ff16156128d9576040517f08c379a00000000000000000000000000000000000000000000000000000000081526004018080602001828103825260148152602001807f496d61676520616c72656164792065786973742100000000000000000000000081525060200191505060405180910390fd5b806002808111156128e657fe5b101561295a576040517f08c379a000000000000000000000000000000000000000000000000000000000815260040180806020018281038252600e8152602001807f496e76616c69642073746174757300000000000000000000000000000000000081525060200191505060405180910390fd5b60016000815480929190600101919050555060016006856040518082805190602001908083835b602083106129a45780518252602082019150602081019050602083039250612981565b6001836020036101000a038019825116818451168082178552505050505050905001915050908152602001604051809103902060006101000a81548160ff0219169083151502179055506040518061012001604052806001548152602001878152602001858152602001848152602001838152602001868152602001600015158152602001826002811115612a3557fe5b6002811115612a4057fe5b81526020013373ffffffffffffffffffffffffffffffffffffffff16815250600260006001548152602001908152602001600020600082015181600001556020820151816001019080519060200190612a9a92919061376b565b506040820151816002019080519060200190612ab792919061376b565b506060820151816003019080519060200190612ad492919061376b565b506080820151816004019080519060200190612af192919061376b565b5060a0820151816005015560c08201518160060160006101000a81548160ff02191690831515021790555060e08201518160060160016101000a81548160ff02191690836002811115612b4057fe5b02179055506101008201518160060160026101000a81548173ffffffffffffffffffffffffffffffffffffffff021916908373ffffffffffffffffffffffffffffffffffffffff160217905550905050600360003373ffffffffffffffffffffffffffffffffffffffff1673ffffffffffffffffffffffffffffffffffffffff16815260200190815260200160002060015490806001815401808255809150509060018203906000526020600020016000909192909190915055507f04277df24c93ab54a29e7d6a8854bba4efb526f9779087c4ab2543bdc6b8c9f4600154878686868a6000886002811115612c3257fe5b33604051808a81526020018060200180602001806020018060200189815260200188151515158152602001876002811115612c6957fe5b60ff1681526020018673ffffffffffffffffffffffffffffffffffffffff1673ffffffffffffffffffffffffffffffffffffffff16815260200185810385528d818151815260200191508051906020019080838360005b83811015612cdb578082015181840152602081019050612cc0565b50505050905090810190601f168015612d085780820380516001836020036101000a031916815260200191505b5085810384528c818151815260200191508051906020019080838360005b83811015612d41578082015181840152602081019050612d26565b50505050905090810190601f168015612d6e5780820380516001836020036101000a031916815260200191505b5085810383528b818151815260200191508051906020019080838360005b83811015612da7578082015181840152602081019050612d8c565b50505050905090810190601f168015612dd45780820380516001836020036101000a031916815260200191505b5085810382528a818151815260200191508051906020019080838360005b83811015612e0d578082015181840152602081019050612df2565b50505050905090810190601f168015612e3a5780820380516001836020036101000a031916815260200191505b509d505050505050505050505050505060405180910390a1505050505050565b600083118015612e6c57506001548311155b612ede576040517f08c379a00000000000000000000000000000000000000000000000000000000081526004018080602001828103825260118152602001807f496e76616c696420696d6167652049442100000000000000000000000000000081525060200191505060405180910390fd5b612ee66136ab565b600260008581526020019081526020016000206040518061012001604052908160008201548152602001600182018054600181600116156101000203166002900480601f016020809104026020016040519081016040528092919081815260200182805460018160011615610100020316600290048015612fa85780601f10612f7d57610100808354040283529160200191612fa8565b820191906000526020600020905b815481529060010190602001808311612f8b57829003601f168201915b50505050508152602001600282018054600181600116156101000203166002900480601f01602080910402602001604051908101604052809291908181526020018280546001816001161561010002031660029004801561304a5780601f1061301f5761010080835404028352916020019161304a565b820191906000526020600020905b81548152906001019060200180831161302d57829003601f168201915b50505050508152602001600382018054600181600116156101000203166002900480601f0160208091040260200160405190810160405280929190818152602001828054600181600116156101000203166002900480156130ec5780601f106130c1576101008083540402835291602001916130ec565b820191906000526020600020905b8154815290600101906020018083116130cf57829003601f168201915b50505050508152602001600482018054600181600116156101000203166002900480601f01602080910402602001604051908101604052809291908181526020018280546001816001161561010002031660029004801561318e5780601f106131635761010080835404028352916020019161318e565b820191906000526020600020905b81548152906001019060200180831161317157829003601f168201915b50505050508152602001600582015481526020016006820160009054906101000a900460ff161515151581526020016006820160019054906101000a900460ff1660028111156131da57fe5b60028111156131e557fe5b81526020016006820160029054906101000a900473ffffffffffffffffffffffffffffffffffffffff1673ffffffffffffffffffffffffffffffffffffffff1673ffffffffffffffffffffffffffffffffffffffff16815250509050600081610100015190508160a0015183146132c4576040517f08c379a00000000000000000000000000000000000000000000000000000000081526004018080602001828103825260178152602001807f54686520707269636520646f65736e2774206d6174636800000000000000000081525060200191505060405180910390fd5b8373ffffffffffffffffffffffffffffffffffffffff168173ffffffffffffffffffffffffffffffffffffffff161415613349576040517f08c379a00000000000000000000000000000000000000000000000000000000081526004018080602001828103825260328152602001806138116032913960400191505060405180910390fd5b6001600281111561335657fe5b8260e00151600281111561336657fe5b146133bc576040517f08c379a000000000000000000000000000000000000000000000000000000000815260040180806020018281038252602281526020018061388a6022913960400191505060405180910390fd5b600560008573ffffffffffffffffffffffffffffffffffffffff1673ffffffffffffffffffffffffffffffffffffffff168152602001908152602001600020600086815260200190815260200160002060009054906101000a900460ff1615613470576040517f08c379a00000000000000000000000000000000000000000000000000000000081526004018080602001828103825260238152602001806138676023913960400191505060405180910390fd5b6001600560008673ffffffffffffffffffffffffffffffffffffffff1673ffffffffffffffffffffffffffffffffffffffff168152602001908152602001600020600087815260200190815260200160002060006101000a81548160ff021916908315150217905550600460008573ffffffffffffffffffffffffffffffffffffffff1673ffffffffffffffffffffffffffffffffffffffff1681526020019081526020016000208590806001815401808255809150509060018203906000526020600020016000909192909190915055507fb378acf5af97990c8d7358e5d586c8afa237ab66111dcbc96d3f60da98dcc2968260000151836020015184604001518560a001518661010001516040518086815260200180602001806020018581526020018473ffffffffffffffffffffffffffffffffffffffff1673ffffffffffffffffffffffffffffffffffffffff168152602001838103835287818151815260200191508051906020019080838360005b838110156135ff5780820151818401526020810190506135e4565b50505050905090810190601f16801561362c5780820380516001836020036101000a031916815260200191505b50838103825286818151815260200191508051906020019080838360005b8381101561366557808201518184015260208101905061364a565b50505050905090810190601f1680156136925780820380516001836020036101000a031916815260200191505b5097505050505050505060405180910390a15050505050565b604051806101200160405280600081526020016060815260200160608152602001606081526020016060815260200160008152602001600015158152602001600060028111156136f757fe5b8152602001600073ffffffffffffffffffffffffffffffffffffffff1681525090565b6040518060600160405280600073ffffffffffffffffffffffffffffffffffffffff16815260200160608152602001600081525090565b604051806040016040528060008152602001600081525090565b828054600181600116156101000203166002900490600052602060002090601f016020900481019282601f106137ac57805160ff19168380011785556137da565b828001600101855582156137da579182015b828111156137d95782518255916020019190600101906137be565b5b5090506137e791906137eb565b5090565b61380d91905b808211156138095760008160009055506001016137f1565b5090565b9056fe50686f746f6772617068657220646f65736e2774206e65656420746f20627579206869732f686572206f776e20696d6167654f6e6c79207075626c697368656420696d6167652063616e206265207265766965776564596f75206861766520616c726561647920626f75676874207468697320696d616765214f6e6c79207075626c697368656420696d6167652063616e20626520626f75676874a265627a7a723158200821d318778f41c0d03d4fb74cee6208240b0350b5602a04bfc3fb271fa70c4b64736f6c63430005100032",
  "source": "pragma solidity >=0.5.16 <0.7.0;\n\nimport \"./PhotoBlockToken.sol\";\n\ncontract ImageMarketPlace is TokenRecipient {\n    string public name;\n    uint public imageCount = 0;\n    \n    mapping(uint => Image) public images;\n    mapping(address => uint[]) private imageUploaded;\n    mapping(address => uint[]) private imageBought;\n    mapping(address => mapping(uint => bool)) public imagesPaid;\n    mapping(string => bool) private imageExist;\n    mapping(uint => ImageStat) public stats;\n    mapping(uint => Review[]) public reviews;\n    mapping(address => mapping(uint => bool)) private haveReviewed;\n    mapping(address => mapping(uint => bool)) private hasPaid;\n\n    constructor() public {\n        name = \"PhotoStock\";\n    }\n\n    enum Status {Draft, Publish, Archieve}\n\n    struct Review{\n        address payable by;\n        string content;\n        uint rate;\n    }\n\n    struct ImageStat{\n        uint totalRate;\n        uint total;\n    }\n\n    struct Image {\n        uint id;\n        string name;\n        string ipfsHash;\n        string ext;\n        string mime;\n        uint price;\n        bool purchased;\n        Status status;\n        address payable owner;\n    }\n\n    event ImageCreated(\n        uint id,\n        string name,\n        string ipfsHash,\n        string ext,\n        string mime,\n        uint price,\n        bool purchased,\n        Status status,\n        address payable owner\n    );\n\n    event ImageEdited(\n        uint id,\n        string name,\n        uint price,\n        Status status\n    );\n\n    event ImagePurchased(\n        uint id,\n        string name,\n        string ipfsHash,\n        uint price,\n        address payable owner\n    );\n\n    event ImageReviewed(\n        uint id,\n        string content,\n        uint rating,\n        address payable by\n    );\n\n    modifier onlyImageOwner(uint256 _id){\n        require(_id > 0 && _id <= imageCount, \"Invalid image ID!\");\n        require(images[_id].owner == msg.sender, \"Only copyright holder can edit!\");\n        _;\n    }\n\n    function imagesUploaded() public view returns(uint[] memory){\n        return imageUploaded[msg.sender];\n    }\n\n    function imagesBought() public view returns(uint[] memory){\n        return imageBought[msg.sender];\n    }\n\n    function createImage(string memory _name, uint _price, string memory _ipfsHash, \n                         string memory _fileExt, string memory _fileMime, uint _status) public {\n        require(bytes(_ipfsHash).length > 0, \"Invalid IPFS address!\");\n        require(bytes(_name).length > 0, \"Name cannot be empty!\");\n        require(_price > 0, \"Price must be not 0!\");\n        require(!imageExist[_ipfsHash], \"Image already exist!\");\n        require(uint(Status.Archieve) >= _status, \"Invalid status\");\n        imageCount ++;\n        imageExist[_ipfsHash] = true;\n        images[imageCount] = Image(imageCount, _name, _ipfsHash, _fileExt, _fileMime, _price, false, Status(_status), msg.sender);\n        imageUploaded[msg.sender].push(imageCount);\n        emit ImageCreated(imageCount, _name, _ipfsHash, _fileExt, _fileMime, _price, false, Status(_status), msg.sender);\n    }\n\n    function purchaseImage(uint _id) public payable {\n        _purchaseImageFor(_id, msg.sender, msg.value);\n    }\n\n    function _purchaseImageFor(uint _id, address _buyer, uint256 _value) private {\n        require(_id > 0 && _id <= imageCount, \"Invalid image ID!\");\n        Image memory _img = images[_id];\n\n        address payable _seller = _img.owner;\n        require(_value == _img.price, \"The price doesn't match\");\n        require(_seller != _buyer, \"Photographer doesn't need to buy his/her own image\");\n        require(_img.status == Status.Publish, \"Only published image can be bought\");\n        require(!imagesPaid[_buyer][_id], \"You have already bought this image!\");\n        imagesPaid[_buyer][_id] = true;\n        imageBought[_buyer].push(_id);\n        emit ImagePurchased(_img.id, _img.name, _img.ipfsHash, _img.price, _img.owner);\n    }\n\n    function tokenFallback(address _from, uint256 _value, bytes memory _extraData) public returns(bool success){\n        uint256 payloadSize;\n        uint256 payload;\n        assembly {\n            payloadSize := mload(_extraData)\n            payload := mload(add(_extraData, 0x20))\n        }\n        payload = payload >> 8*(32 - payloadSize);\n        _purchaseImageFor(payload, _from, _value);\n        return true;\n    }\n\n    function editImageDescr(uint _id, string memory _newName, uint _newPrice, uint _newStatus) public onlyImageOwner(_id){\n        require(bytes(_newName).length > 0, \"Name cannot be empty!\");\n        require(_newPrice > 0, \"Price must be not 0!\");\n        require(uint(Status.Archieve) >= _newStatus, \"Invalid status\");\n        Image memory img = images[_id];\n        img.name = _newName;\n        img.price = _newPrice;\n        img.status = Status(_newStatus);\n        images[_id] = img;\n        emit ImageEdited(_id, _newName, _newPrice, img.status);\n    }\n\n    function postRate(uint _imageId, string memory _content, uint _rateValue) public {\n        require(_imageId > 0 && _imageId <= imageCount, \"Invalid image ID\");\n        require(msg.sender != address(0), \"Invalid address\");\n        require(_rateValue > 0 && _rateValue <= 5, \"Invalid rate value\");\n        require(imagesPaid[msg.sender][_imageId], \"Sender hasn't bought the image\");\n        require(!haveReviewed[msg.sender][_imageId], \"Sender can only review once\");\n        Image memory _img = images[_imageId];\n        require(_img.owner != msg.sender, \"Owner can't review\");\n        require(_img.status == Status.Publish, \"Only published image can be reviewed\");\n\n        Review memory review = Review(msg.sender, _content, _rateValue);\n        ImageStat memory imgStat = stats[_imageId];\n\n        imgStat.totalRate = imgStat.totalRate + _rateValue;\n        imgStat.total = imgStat.total + 1;\n        reviews[_imageId].push(review);\n\n        // Send bonus if meet the criteria\n        if(!hasPaid[msg.sender][_imageId]){\n            // transfer 1 PBCoin\n            hasPaid[msg.sender][_imageId] = true;\n        }\n\n        if (imgStat.total >= 100 && (imgStat.totalRate/imgStat.total) > 4 && !hasPaid[_img.owner][_imageId]){\n            // transfer 2 PBCoin\n            hasPaid[_img.owner][_imageId] = true;\n        }\n\n        emit ImageReviewed(_imageId, _content, _rateValue, msg.sender);\n    }\n}",
  "sourcePath": "/Users/hadihs/Documents/photo/contracts/ImageMarketPlace.sol",
  "compiler": {
    "name": "solc",
    "version": "0.5.16+commit.9c3226ce.Emscripten.clang"
  },
  "schemaVersion": "3.0.23",
  "updatedAt": "2020-06-04T09:19:43.836Z",
  "networkType": "ethereum",
  "devdoc": {
    "methods": {}
  },
  "userdoc": {
    "methods": {}
  }
}