{
  "contractName": "ImageMarketPlace",
  "abi": [
    {
      "inputs": [
        {
          "internalType": "contract PhotoBlockToken",
          "name": "_tokenContract",
          "type": "address"
        }
      ],
      "payable": false,
      "stateMutability": "nonpayable",
      "type": "constructor"
    },
    {
      "anonymous": false,
      "inputs": [
        {
          "indexed": false,
          "internalType": "uint256",
          "name": "id",
          "type": "uint256"
        },
        {
          "indexed": false,
          "internalType": "string",
          "name": "name",
          "type": "string"
        },
        {
          "indexed": false,
          "internalType": "string",
          "name": "ipfsHash",
          "type": "string"
        },
        {
          "indexed": false,
          "internalType": "string",
          "name": "ext",
          "type": "string"
        },
        {
          "indexed": false,
          "internalType": "string",
          "name": "mime",
          "type": "string"
        },
        {
          "indexed": false,
          "internalType": "uint256",
          "name": "price",
          "type": "uint256"
        },
        {
          "indexed": false,
          "internalType": "bool",
          "name": "purchased",
          "type": "bool"
        },
        {
          "indexed": false,
          "internalType": "address payable",
          "name": "owner",
          "type": "address"
        }
      ],
      "name": "ImageCreated",
      "type": "event"
    },
    {
      "anonymous": false,
      "inputs": [
        {
          "indexed": false,
          "internalType": "uint256",
          "name": "id",
          "type": "uint256"
        },
        {
          "indexed": false,
          "internalType": "string",
          "name": "name",
          "type": "string"
        },
        {
          "indexed": false,
          "internalType": "uint256",
          "name": "price",
          "type": "uint256"
        }
      ],
      "name": "ImageEdited",
      "type": "event"
    },
    {
      "anonymous": false,
      "inputs": [
        {
          "indexed": false,
          "internalType": "uint256",
          "name": "id",
          "type": "uint256"
        },
        {
          "indexed": false,
          "internalType": "string",
          "name": "name",
          "type": "string"
        },
        {
          "indexed": false,
          "internalType": "string",
          "name": "ipfsHash",
          "type": "string"
        },
        {
          "indexed": false,
          "internalType": "uint256",
          "name": "price",
          "type": "uint256"
        },
        {
          "indexed": false,
          "internalType": "address payable",
          "name": "owner",
          "type": "address"
        }
      ],
      "name": "ImagePurchased",
      "type": "event"
    },
    {
      "constant": true,
      "inputs": [],
      "name": "imageCount",
      "outputs": [
        {
          "internalType": "uint256",
          "name": "",
          "type": "uint256"
        }
      ],
      "payable": false,
      "stateMutability": "view",
      "type": "function"
    },
    {
      "constant": true,
      "inputs": [
        {
          "internalType": "uint256",
          "name": "",
          "type": "uint256"
        }
      ],
      "name": "images",
      "outputs": [
        {
          "internalType": "uint256",
          "name": "id",
          "type": "uint256"
        },
        {
          "internalType": "string",
          "name": "name",
          "type": "string"
        },
        {
          "internalType": "string",
          "name": "ipfsHash",
          "type": "string"
        },
        {
          "internalType": "string",
          "name": "ext",
          "type": "string"
        },
        {
          "internalType": "string",
          "name": "mime",
          "type": "string"
        },
        {
          "internalType": "uint256",
          "name": "price",
          "type": "uint256"
        },
        {
          "internalType": "bool",
          "name": "purchased",
          "type": "bool"
        },
        {
          "internalType": "address payable",
          "name": "owner",
          "type": "address"
        }
      ],
      "payable": false,
      "stateMutability": "view",
      "type": "function"
    },
    {
      "constant": true,
      "inputs": [
        {
          "internalType": "address",
          "name": "",
          "type": "address"
        },
        {
          "internalType": "uint256",
          "name": "",
          "type": "uint256"
        }
      ],
      "name": "imagesPaid",
      "outputs": [
        {
          "internalType": "bool",
          "name": "",
          "type": "bool"
        }
      ],
      "payable": false,
      "stateMutability": "view",
      "type": "function"
    },
    {
      "constant": true,
      "inputs": [],
      "name": "name",
      "outputs": [
        {
          "internalType": "string",
          "name": "",
          "type": "string"
        }
      ],
      "payable": false,
      "stateMutability": "view",
      "type": "function"
    },
    {
      "constant": false,
      "inputs": [
        {
          "internalType": "string",
          "name": "_name",
          "type": "string"
        },
        {
          "internalType": "uint256",
          "name": "_price",
          "type": "uint256"
        },
        {
          "internalType": "string",
          "name": "_ipfsHash",
          "type": "string"
        },
        {
          "internalType": "string",
          "name": "_fileExt",
          "type": "string"
        },
        {
          "internalType": "string",
          "name": "_fileMime",
          "type": "string"
        }
      ],
      "name": "createImage",
      "outputs": [],
      "payable": false,
      "stateMutability": "nonpayable",
      "type": "function"
    },
    {
      "constant": false,
      "inputs": [
        {
          "internalType": "uint256",
          "name": "_id",
          "type": "uint256"
        }
      ],
      "name": "purchaseImage",
      "outputs": [],
      "payable": true,
      "stateMutability": "payable",
      "type": "function"
    },
    {
      "constant": false,
      "inputs": [
        {
          "internalType": "address",
          "name": "_from",
          "type": "address"
        },
        {
          "internalType": "uint256",
          "name": "_value",
          "type": "uint256"
        },
        {
          "internalType": "bytes",
          "name": "_extraData",
          "type": "bytes"
        }
      ],
      "name": "tokenFallback",
      "outputs": [
        {
          "internalType": "bool",
          "name": "success",
          "type": "bool"
        }
      ],
      "payable": false,
      "stateMutability": "nonpayable",
      "type": "function"
    },
    {
      "constant": false,
      "inputs": [
        {
          "internalType": "uint256",
          "name": "_id",
          "type": "uint256"
        },
        {
          "internalType": "string",
          "name": "_newName",
          "type": "string"
        },
        {
          "internalType": "uint256",
          "name": "_newPrice",
          "type": "uint256"
        }
      ],
      "name": "editImageDescr",
      "outputs": [],
      "payable": false,
      "stateMutability": "nonpayable",
      "type": "function"
    }
  ],
  "bytecode": "0x608060405260006001553480156200001657600080fd5b506040516200226d3803806200226d833981810160405260208110156200003c57600080fd5b81019080805190602001909291905050506040518060400160405280600a81526020017f50686f746f53746f636b00000000000000000000000000000000000000000000815250600090805190602001906200009a929190620000e3565b5080600560006101000a81548173ffffffffffffffffffffffffffffffffffffffff021916908373ffffffffffffffffffffffffffffffffffffffff1602179055505062000192565b828054600181600116156101000203166002900490600052602060002090601f016020900481019282601f106200012657805160ff191683800117855562000157565b8280016001018555821562000157579182015b828111156200015657825182559160200191906001019062000139565b5b5090506200016691906200016a565b5090565b6200018f91905b808211156200018b57600081600090555060010162000171565b5090565b90565b6120cb80620001a26000396000f3fe60806040526004361061007b5760003560e01c8063848564821161004e578063848564821461044857806392053b631461068c578063c0ee0b8a146106b7578063fb785873146107c15761007b565b8063058744811461008057806306fdde03146100f3578063459965b61461018357806357294062146101b1575b600080fd5b34801561008c57600080fd5b506100d9600480360360408110156100a357600080fd5b81019080803573ffffffffffffffffffffffffffffffffffffffff1690602001909291908035906020019092919050505061089d565b604051808215151515815260200191505060405180910390f35b3480156100ff57600080fd5b506101086108cc565b6040518080602001828103825283818151815260200191508051906020019080838360005b8381101561014857808201518184015260208101905061012d565b50505050905090810190601f1680156101755780820380516001836020036101000a031916815260200191505b509250505060405180910390f35b6101af6004803603602081101561019957600080fd5b810190808035906020019092919050505061096a565b005b3480156101bd57600080fd5b50610446600480360360a08110156101d457600080fd5b81019080803590602001906401000000008111156101f157600080fd5b82018360208201111561020357600080fd5b8035906020019184600183028401116401000000008311171561022557600080fd5b91908080601f016020809104026020016040519081016040528093929190818152602001838380828437600081840152601f19601f820116905080830192505050505050509192919290803590602001909291908035906020019064010000000081111561029257600080fd5b8201836020820111156102a457600080fd5b803590602001918460018302840111640100000000831117156102c657600080fd5b91908080601f016020809104026020016040519081016040528093929190818152602001838380828437600081840152601f19601f8201169050808301925050505050505091929192908035906020019064010000000081111561032957600080fd5b82018360208201111561033b57600080fd5b8035906020019184600183028401116401000000008311171561035d57600080fd5b91908080601f016020809104026020016040519081016040528093929190818152602001838380828437600081840152601f19601f820116905080830192505050505050509192919290803590602001906401000000008111156103c057600080fd5b8201836020820111156103d257600080fd5b803590602001918460018302840111640100000000831117156103f457600080fd5b91908080601f016020809104026020016040519081016040528093929190818152602001838380828437600081840152601f19601f820116905080830192505050505050509192919290505050610978565b005b34801561045457600080fd5b506104816004803603602081101561046b57600080fd5b8101908080359060200190929190505050610f08565b6040518089815260200180602001806020018060200180602001888152602001871515151581526020018673ffffffffffffffffffffffffffffffffffffffff1673ffffffffffffffffffffffffffffffffffffffff16815260200185810385528c818151815260200191508051906020019080838360005b838110156105155780820151818401526020810190506104fa565b50505050905090810190601f1680156105425780820380516001836020036101000a031916815260200191505b5085810384528b818151815260200191508051906020019080838360005b8381101561057b578082015181840152602081019050610560565b50505050905090810190601f1680156105a85780820380516001836020036101000a031916815260200191505b5085810383528a818151815260200191508051906020019080838360005b838110156105e15780820151818401526020810190506105c6565b50505050905090810190601f16801561060e5780820380516001836020036101000a031916815260200191505b50858103825289818151815260200191508051906020019080838360005b8381101561064757808201518184015260208101905061062c565b50505050905090810190601f1680156106745780820380516001836020036101000a031916815260200191505b509c5050505050505050505050505060405180910390f35b34801561069857600080fd5b506106a16111dd565b6040518082815260200191505060405180910390f35b3480156106c357600080fd5b506107a7600480360360608110156106da57600080fd5b81019080803573ffffffffffffffffffffffffffffffffffffffff169060200190929190803590602001909291908035906020019064010000000081111561072157600080fd5b82018360208201111561073357600080fd5b8035906020019184600183028401116401000000008311171561075557600080fd5b91908080601f016020809104026020016040519081016040528093929190818152602001838380828437600081840152601f19601f8201169050808301925050505050505091929192905050506111e3565b604051808215151515815260200191505060405180910390f35b3480156107cd57600080fd5b5061089b600480360360608110156107e457600080fd5b81019080803590602001909291908035906020019064010000000081111561080b57600080fd5b82018360208201111561081d57600080fd5b8035906020019184600183028401116401000000008311171561083f57600080fd5b91908080601f016020809104026020016040519081016040528093929190818152602001838380828437600081840152601f19601f82011690508083019250505050505050919291929080359060200190929190505050611217565b005b60036020528160005260406000206020528060005260406000206000915091509054906101000a900460ff1681565b60008054600181600116156101000203166002900480601f0160208091040260200160405190810160405280929190818152602001828054600181600116156101000203166002900480156109625780601f1061093757610100808354040283529160200191610962565b820191906000526020600020905b81548152906001019060200180831161094557829003601f168201915b505050505081565b6109758133346117f1565b50565b60008351116109ef576040517f08c379a00000000000000000000000000000000000000000000000000000000081526004018080602001828103825260158152602001807f496e76616c69642049504653206164647265737321000000000000000000000081525060200191505060405180910390fd5b6000855111610a66576040517f08c379a00000000000000000000000000000000000000000000000000000000081526004018080602001828103825260158152602001807f4e616d652063616e6e6f7420626520656d70747921000000000000000000000081525060200191505060405180910390fd5b60008411610adc576040517f08c379a00000000000000000000000000000000000000000000000000000000081526004018080602001828103825260148152602001807f5072696365206d757374206265206e6f7420302100000000000000000000000081525060200191505060405180910390fd5b6004836040518082805190602001908083835b60208310610b125780518252602082019150602081019050602083039250610aef565b6001836020036101000a038019825116818451168082178552505050505050905001915050908152602001604051809103902060009054906101000a900460ff1615610b5d57600080fd5b60016000815480929190600101919050555060405180610100016040528060015481526020018681526020018481526020018381526020018281526020018581526020016000151581526020013373ffffffffffffffffffffffffffffffffffffffff16815250600260006001548152602001908152602001600020600082015181600001556020820151816001019080519060200190610bff929190611f3f565b506040820151816002019080519060200190610c1c929190611f3f565b506060820151816003019080519060200190610c39929190611f3f565b506080820151816004019080519060200190610c56929190611f3f565b5060a0820151816005015560c08201518160060160006101000a81548160ff02191690831515021790555060e08201518160060160016101000a81548173ffffffffffffffffffffffffffffffffffffffff021916908373ffffffffffffffffffffffffffffffffffffffff1602179055509050507feaee0729f73cb8d624fbf543ffe65646651714bfeda87ec774c446e5835f733160015486858585896000336040518089815260200180602001806020018060200180602001888152602001871515151581526020018673ffffffffffffffffffffffffffffffffffffffff1673ffffffffffffffffffffffffffffffffffffffff16815260200185810385528c818151815260200191508051906020019080838360005b83811015610d8b578082015181840152602081019050610d70565b50505050905090810190601f168015610db85780820380516001836020036101000a031916815260200191505b5085810384528b818151815260200191508051906020019080838360005b83811015610df1578082015181840152602081019050610dd6565b50505050905090810190601f168015610e1e5780820380516001836020036101000a031916815260200191505b5085810383528a818151815260200191508051906020019080838360005b83811015610e57578082015181840152602081019050610e3c565b50505050905090810190601f168015610e845780820380516001836020036101000a031916815260200191505b50858103825289818151815260200191508051906020019080838360005b83811015610ebd578082015181840152602081019050610ea2565b50505050905090810190601f168015610eea5780820380516001836020036101000a031916815260200191505b509c5050505050505050505050505060405180910390a15050505050565b6002602052806000526040600020600091509050806000015490806001018054600181600116156101000203166002900480601f016020809104026020016040519081016040528092919081815260200182805460018160011615610100020316600290048015610fba5780601f10610f8f57610100808354040283529160200191610fba565b820191906000526020600020905b815481529060010190602001808311610f9d57829003601f168201915b505050505090806002018054600181600116156101000203166002900480601f0160208091040260200160405190810160405280929190818152602001828054600181600116156101000203166002900480156110585780601f1061102d57610100808354040283529160200191611058565b820191906000526020600020905b81548152906001019060200180831161103b57829003601f168201915b505050505090806003018054600181600116156101000203166002900480601f0160208091040260200160405190810160405280929190818152602001828054600181600116156101000203166002900480156110f65780601f106110cb576101008083540402835291602001916110f6565b820191906000526020600020905b8154815290600101906020018083116110d957829003601f168201915b505050505090806004018054600181600116156101000203166002900480601f0160208091040260200160405190810160405280929190818152602001828054600181600116156101000203166002900480156111945780601f1061116957610100808354040283529160200191611194565b820191906000526020600020905b81548152906001019060200180831161117757829003601f168201915b5050505050908060050154908060060160009054906101000a900460ff16908060060160019054906101000a900473ffffffffffffffffffffffffffffffffffffffff16905088565b60015481565b600080600083519150602084015190508160200360080281901c905061120a8187876117f1565b6001925050509392505050565b823373ffffffffffffffffffffffffffffffffffffffff166002600083815260200190815260200160002060060160019054906101000a900473ffffffffffffffffffffffffffffffffffffffff1673ffffffffffffffffffffffffffffffffffffffff16146112ef576040517f08c379a000000000000000000000000000000000000000000000000000000000815260040180806020018281038252601f8152602001807f4f6e6c7920636f7079726967687420686f6c6465722063616e2065646974210081525060200191505060405180910390fd5b6112f7611fbf565b600260008681526020019081526020016000206040518061010001604052908160008201548152602001600182018054600181600116156101000203166002900480601f0160208091040260200160405190810160405280929190818152602001828054600181600116156101000203166002900480156113b95780601f1061138e576101008083540402835291602001916113b9565b820191906000526020600020905b81548152906001019060200180831161139c57829003601f168201915b50505050508152602001600282018054600181600116156101000203166002900480601f01602080910402602001604051908101604052809291908181526020018280546001816001161561010002031660029004801561145b5780601f106114305761010080835404028352916020019161145b565b820191906000526020600020905b81548152906001019060200180831161143e57829003601f168201915b50505050508152602001600382018054600181600116156101000203166002900480601f0160208091040260200160405190810160405280929190818152602001828054600181600116156101000203166002900480156114fd5780601f106114d2576101008083540402835291602001916114fd565b820191906000526020600020905b8154815290600101906020018083116114e057829003601f168201915b50505050508152602001600482018054600181600116156101000203166002900480601f01602080910402602001604051908101604052809291908181526020018280546001816001161561010002031660029004801561159f5780601f106115745761010080835404028352916020019161159f565b820191906000526020600020905b81548152906001019060200180831161158257829003601f168201915b50505050508152602001600582015481526020016006820160009054906101000a900460ff161515151581526020016006820160019054906101000a900473ffffffffffffffffffffffffffffffffffffffff1673ffffffffffffffffffffffffffffffffffffffff1673ffffffffffffffffffffffffffffffffffffffff16815250509050838160200181905250828160a00181815250508060026000878152602001908152602001600020600082015181600001556020820151816001019080519060200190611672929190611f3f565b50604082015181600201908051906020019061168f929190611f3f565b5060608201518160030190805190602001906116ac929190611f3f565b5060808201518160040190805190602001906116c9929190611f3f565b5060a0820151816005015560c08201518160060160006101000a81548160ff02191690831515021790555060e08201518160060160016101000a81548173ffffffffffffffffffffffffffffffffffffffff021916908373ffffffffffffffffffffffffffffffffffffffff1602179055509050507fae2dad282e2864ee6756173cd08b41ae3338ffab578a306d30e95288a63a27068585856040518084815260200180602001838152602001828103825284818151815260200191508051906020019080838360005b838110156117ae578082015181840152602081019050611793565b50505050905090810190601f1680156117db5780820380516001836020036101000a031916815260200191505b5094505050505060405180910390a15050505050565b6117f9611fbf565b600260008581526020019081526020016000206040518061010001604052908160008201548152602001600182018054600181600116156101000203166002900480601f0160208091040260200160405190810160405280929190818152602001828054600181600116156101000203166002900480156118bb5780601f10611890576101008083540402835291602001916118bb565b820191906000526020600020905b81548152906001019060200180831161189e57829003601f168201915b50505050508152602001600282018054600181600116156101000203166002900480601f01602080910402602001604051908101604052809291908181526020018280546001816001161561010002031660029004801561195d5780601f106119325761010080835404028352916020019161195d565b820191906000526020600020905b81548152906001019060200180831161194057829003601f168201915b50505050508152602001600382018054600181600116156101000203166002900480601f0160208091040260200160405190810160405280929190818152602001828054600181600116156101000203166002900480156119ff5780601f106119d4576101008083540402835291602001916119ff565b820191906000526020600020905b8154815290600101906020018083116119e257829003601f168201915b50505050508152602001600482018054600181600116156101000203166002900480601f016020809104026020016040519081016040528092919081815260200182805460018160011615610100020316600290048015611aa15780601f10611a7657610100808354040283529160200191611aa1565b820191906000526020600020905b815481529060010190602001808311611a8457829003601f168201915b50505050508152602001600582015481526020016006820160009054906101000a900460ff161515151581526020016006820160019054906101000a900473ffffffffffffffffffffffffffffffffffffffff1673ffffffffffffffffffffffffffffffffffffffff1673ffffffffffffffffffffffffffffffffffffffff1681525050905060008160e00151905060008260000151118015611b4a5750600154826000015111155b611bbc576040517f08c379a00000000000000000000000000000000000000000000000000000000081526004018080602001828103825260118152602001807f496e76616c696420696d6167652049442100000000000000000000000000000081525060200191505060405180910390fd5b8160a001518314611c35576040517f08c379a00000000000000000000000000000000000000000000000000000000081526004018080602001828103825260178152602001807f54686520707269636520646f65736e2774206d6174636800000000000000000081525060200191505060405180910390fd5b8373ffffffffffffffffffffffffffffffffffffffff168173ffffffffffffffffffffffffffffffffffffffff161415611cba576040517f08c379a00000000000000000000000000000000000000000000000000000000081526004018080602001828103825260328152602001806120426032913960400191505060405180910390fd5b600360008573ffffffffffffffffffffffffffffffffffffffff1673ffffffffffffffffffffffffffffffffffffffff168152602001908152602001600020600086815260200190815260200160002060009054906101000a900460ff1615611d6e576040517f08c379a00000000000000000000000000000000000000000000000000000000081526004018080602001828103825260238152602001806120746023913960400191505060405180910390fd5b6001600360008673ffffffffffffffffffffffffffffffffffffffff1673ffffffffffffffffffffffffffffffffffffffff168152602001908152602001600020600087815260200190815260200160002060006101000a81548160ff0219169083151502179055507fb378acf5af97990c8d7358e5d586c8afa237ab66111dcbc96d3f60da98dcc2968260000151836020015184604001518560a001518660e001516040518086815260200180602001806020018581526020018473ffffffffffffffffffffffffffffffffffffffff1673ffffffffffffffffffffffffffffffffffffffff168152602001838103835287818151815260200191508051906020019080838360005b83811015611e93578082015181840152602081019050611e78565b50505050905090810190601f168015611ec05780820380516001836020036101000a031916815260200191505b50838103825286818151815260200191508051906020019080838360005b83811015611ef9578082015181840152602081019050611ede565b50505050905090810190601f168015611f265780820380516001836020036101000a031916815260200191505b5097505050505050505060405180910390a15050505050565b828054600181600116156101000203166002900490600052602060002090601f016020900481019282601f10611f8057805160ff1916838001178555611fae565b82800160010185558215611fae579182015b82811115611fad578251825591602001919060010190611f92565b5b509050611fbb919061201c565b5090565b604051806101000160405280600081526020016060815260200160608152602001606081526020016060815260200160008152602001600015158152602001600073ffffffffffffffffffffffffffffffffffffffff1681525090565b61203e91905b8082111561203a576000816000905550600101612022565b5090565b9056fe50686f746f6772617068657220646f65736e2774206e65656420746f20627579206869732f686572206f776e20696d616765596f75206861766520616c726561647920626f75676874207468697320696d61676521a265627a7a72315820fd3e228c9f560415686cd9525f0420ad5979cb74e3b25756183fb8d0f498cc6164736f6c63430005100032",
  "source": "pragma solidity >=0.5.16 <0.7.0;\n\nimport \"./PhotoBlockToken.sol\";\n\ncontract ImageMarketPlace is TokenRecipient {\n    string public name;\n    uint public imageCount = 0;\n    mapping(uint => Image) public images;\n    mapping(address => mapping(uint => bool)) public imagesPaid;\n    mapping(string => bool) private imageExist;\n\n    PhotoBlockToken private tokenContract;\n\n    constructor(PhotoBlockToken _tokenContract) public {\n        name = \"PhotoStock\";\n        tokenContract = _tokenContract;\n    }\n\n    struct Image {\n        uint id;\n        string name;\n        string ipfsHash;\n        string ext;\n        string mime;\n        uint price;\n        bool purchased;\n        address payable owner;\n    }\n\n    event ImageCreated(\n        uint id,\n        string name,\n        string ipfsHash,\n        string ext,\n        string mime,\n        uint price,\n        bool purchased,\n        address payable owner\n    );\n\n    event ImageEdited(\n        uint id,\n        string name,\n        uint price\n    );\n\n    event ImagePurchased(\n        uint id,\n        string name,\n        string ipfsHash,\n        uint price,\n        address payable owner\n    );\n\n    modifier onlyImageOwner(uint256 _id){\n        require(images[_id].owner == msg.sender, \"Only copyright holder can edit!\");\n        _;\n    }\n\n    function createImage(string memory _name, uint _price, string memory _ipfsHash, \n                         string memory _fileExt, string memory _fileMime) public {\n        require(bytes(_ipfsHash).length > 0, \"Invalid IPFS address!\");\n        require(bytes(_name).length > 0, \"Name cannot be empty!\");\n        require(_price > 0, \"Price must be not 0!\");\n        require(!imageExist[_ipfsHash]);\n        imageCount ++;\n        images[imageCount] = Image(imageCount, _name, _ipfsHash, _fileExt, _fileMime, _price, false, msg.sender);\n        emit ImageCreated(imageCount, _name, _ipfsHash, _fileExt, _fileMime, _price, false, msg.sender);\n    }\n\n    function purchaseImage(uint _id) public payable {\n        _purchaseImageFor(_id, msg.sender, msg.value);\n    }\n\n    function _purchaseImageFor(uint _id, address _buyer, uint256 _value) private {\n        Image memory _img = images[_id];\n\n        address payable _seller = _img.owner;\n        require(_img.id > 0 && _img.id <= imageCount, \"Invalid image ID!\");\n        require(_value == _img.price, \"The price doesn't match\");\n        require(_seller != _buyer, \"Photographer doesn't need to buy his/her own image\");\n        require(!imagesPaid[_buyer][_id], \"You have already bought this image!\");\n        imagesPaid[_buyer][_id] = true;\n        emit ImagePurchased(_img.id, _img.name, _img.ipfsHash, _img.price, _img.owner);\n    }\n\n    function tokenFallback(address _from, uint256 _value, bytes memory _extraData) public returns(bool success){\n        uint256 payloadSize;\n        uint256 payload;\n        assembly {\n            payloadSize := mload(_extraData)\n            payload := mload(add(_extraData, 0x20))\n        }\n        payload = payload >> 8*(32 - payloadSize);\n        _purchaseImageFor(payload, _from, _value);\n        return true;\n    }\n\n    function editImageDescr(uint _id, string memory _newName, uint _newPrice) public onlyImageOwner(_id){\n        Image memory img = images[_id];\n        img.name = _newName;\n        img.price = _newPrice;\n        images[_id] = img;\n        emit ImageEdited(_id, _newName, _newPrice);\n    }\n}",
  "sourcePath": "/Users/hadihs/Documents/photo/contracts/ImageMarketPlace.sol",
  "compiler": {
    "name": "solc",
    "version": "0.5.16+commit.9c3226ce.Emscripten.clang"
  },
  "schemaVersion": "3.0.23",
  "updatedAt": "2020-05-25T06:17:05.738Z",
  "networkType": "ethereum",
  "devdoc": {
    "methods": {}
  },
  "userdoc": {
    "methods": {}
  }
}